:100000000C949A020C94E1020C94E1020C94E1022B
:100010000C94E1020C94E1020C94E1020C94E102D4
:100020000C94E1020C94E1020C94C22C0C94962DD9
:100030000C94A3270C94E1020C94E1020C94E102CD
:100040000C94E1020C94E1020C94E1020C94E102A4
:100050000C94E1020C9416280C94E1020C94E10239
:100060000C94E1020C94E1020C94E1020C94E10284
:100070000C94E1020C94E1020C94E1020C94E10274
:100080000C94E1020C94E1020C94E1020C94E10264
:100090000C94E1020C94E1020C94E1020C94E10254
:1000A0000C94E1020C94E1020C94E1022B00140088
:1000B0001A000900130005000D000F0018001C00B5
:1000C00033004C002A0004001500160017000A0037
:1000D0001045110008000C0012443400E1001D61BD
:1000E0001B610664070019000E000B003600370084
:1000F00038002800C35CE000E200E30001512C005E
:10010000000002515000510052004F0035021E0203
:100110001F022002210222022302240225022602BB
:1001200027022A0029003A003B003C003D003E0027
:100130003F002D022E022F0230023102010040004A
:1001400041004200430044004500320264024A007C
:100150004D0001000100010001000100010001004B
:1001600000000100AB00AA00A900AE0035001E008F
:100170001F0020002100220023002400250026006B
:1001800027002A004C003A003B003C003D003E00A6
:100190003F002D002E002F003000310001004000F4
:1001A00041004200430044004500320064004B001F
:1001B0004E000100010001000100010001000100EA
:1001C00000000100AB00AA00A900AE000100005C25
:1001D000015CC35CC45CC65CC75CC85CC95CCA5CCF
:1001E000CB5C4C0001000100010001000100010096
:1001F00001000100010001000100010001000100F7
:1002000001000100010001000100010001000100E6
:1002100001000100010001000100010001000100D6
:100220000000010001000100010001000100350093
:100230003800310024020100010046005200010094
:1002400001004C0001002E022F002F0226020100A7
:100250000100500051004F000100AE000100E0001D
:1002600030003002270201000100010001000100FE
:100270000100010001000100010001000100010076
:100280000000010001000100010001000100350033
:100290003800310024020100010046004B0001003B
:1002A00001004C0001002E022F002F022602010047
:1002B00001004A004E004D00010001000100E00075
:1002C000300030022702010001000100010001009E
:1002D0000100010001000100010001000100010016
:1002E0000000010001000100010001000001010106
:1002F00001010101010102020202020202020203E3
:1003000003030303030303040404040404040505B2
:100310000505050606060606070707070708080875
:1003200008090909090A0A0A0B0B0B0C0C0C0D0D24
:100330000D0E0E0E0F0F0F101011111112121313BC
:100340001414151516161717181819191A1A1B1B35
:100350001C1D1D1E1E1F2020212222232424252691
:1003600026272829292A2B2C2D2D2E2F30313232C9
:10037000333435363738393A3B3C3D3E3F404142D5
:10038000434445464748494A4C4D4E4F50515354BB
:10039000555658595A5B5D5E5F616264656668696F
:1003A0006B6C6D6F7072737577787A7B7D7E8082EF
:1003B000838587888A8C8E8F91939596989A9C9E38
:1003C000A0A2A3A5A7A9ABADAFB1B3B5B7BABCBE48
:1003D000C0C2C4C6C9CBCDCFD1D4D6D8DBDDDFE215
:1003E000E4E7E9EBEEF0F3F5F8FAFDFF2203420053
:1003F0004D0034003000200048006F00740073008E
:1004000077006100700020005200470042000000A9
:1004100016034B005000520065007000750062002A
:100420006C006900630000000403090409023B003A
:10043000020100A0FA0904000001030101000921E2
:10044000110100012240000705810308000A090488
:1004500001000103000000092111010001227B00BD
:100460000705820320000A12011001000000085055
:100470004B303401000102000105010902A1018590
:10048000020901A100050919012908150025019596
:1004900008750181020501093009311581257F9513
:1004A000027508810609381581257F950175088137
:1004B00006050C0A38021581257F9501750881060D
:1004C000C0C005010980A101850319012AB70015E3
:1004D0000126B700950175108100C0050C0901A126
:1004E00001850419012AA002150126A002950175B3
:1004F000108100C005010906A101050719E029E7DF
:100500001500250195087501810295017508810185
:100510000507190029FF150026FF009506750881BB
:1005200000050819012905950575019102950175C8
:10053000039101C011241FBECFEFDAE0DEBFCDBFB3
:1005400004B603FE27C080913B0490913C04A09127
:100550003D04B0913E048730904BA740B04BD1F49E
:1005600010923B0410923C0410923D0410923E0401
:1005700014BE84B7877F84BF0FB6F894A895809186
:100580006000886180936000109260000FBEE0E020
:10059000F8E3099512E0A0E0B1E0ECEEF1E602C06C
:1005A00005900D92A437B107D9F724E0A4E7B2E093
:1005B00001C01D92AB33B207E1F70E94FC290C94F5
:1005C00090300C94000081E00E9481170C94552714
:1005D00080E00E9481170C949A270F9303E022E099
:1005E00041E00E9445030F91089581E0089581E064
:1005F00008950C94F70208950C94FB021F93CF9377
:10060000DF9300D000D00F92CDB7DEB749835A8375
:100610006B833091CF0289819A8131111DC066238D
:10062000B9F02223A9F00E940A25182F682F89818A
:100630009A810E94B62469817A81812F0F900F9050
:100640000F900F900F90DF91CF911F910C940C049D
:100650000E94E224182FEFCF0E940A2569817A8137
:10066000EDCFFC01262F408151816281738184810D
:100670000C94FE02CF93DF93EC0160E00E94310303
:10068000BE01DF91CF910C94FC028F929F92AF92AA
:10069000BF92CF92DF92EF92FF920F931F936B0165
:1006A0007C0181E090E0A0E0B0E04C015D0104C07D
:1006B000880C991CAA1CBB1C4A95D2F7B501A40151
:1006C0004C015D0104C0880C991CAA1CBB1C2A9516
:1006D000D2F7482959296A297B2904C0880F991F14
:1006E000AA1FBB1F0A95D2F78A019B010C211D216D
:1006F0002E213F21041715072607370789F48C2977
:100700009D29AE29BF29BC01CD011F910F91FF90FA
:10071000EF90DF90CF90BF90AF909F908F90089513
:1007200080959095A095B0958C219D21AE21BF21FB
:10073000EACF0E9465280E945626811102C00E94BD
:10074000FA260E9425170C9418060C941B0608958F
:100750000E9422200E94A7032FEF84E39CE02150F7
:1007600080409040E1F700C000000C943A280F93BD
:100770001F93CF93DF93EC0161E00E9431038C0162
:10078000BE010E94F902882359F1BE01C8010E94EE
:100790007F19882329F1BE01C8010E94D11988233D
:1007A000F9F0BE01C8010E94F41A8823C9F0BE0105
:1007B000C8010E948918882399F08A81882339F01A
:1007C00001158CE5180751F00F3D1C4579F0CE015D
:1007D000DF91CF911F910F910C94F5020E94A80315
:1007E00080E0DF91CF911F910F9108950E94FA262A
:1007F000F7CF08950C94F90381E008950C94FC035D
:10080000CF93C82F0E94FA038C2FCF910C94FE0334
:1008100090E080E008950895972F70E02CE0929F7B
:10082000600D711D1124FB0190E3899FE00DF11D06
:100830001124EE0FFF1FE455FF4F85919491089509
:10084000FC01EE0FFF1FE451FD4F85919491089537
:10085000CF93DF930E940C040E943D05EC018115AB
:1008600020E5920708F042C0811530E4930708F0B4
:10087000BDC0883E910528F5803E910508F09DC0D9
:10088000883A910588F4853A910508F08FC0813047
:10089000910509F492C0009709F48FC0049708F0FD
:1008A0008CC0D0E0C0E089C08F3B910508F489C0BE
:1008B000805C9109C03CD105A0F30E942004EC01AA
:1008C0007CC08115904250F4C11581E0D80708F032
:1008D00074C0CD3ED10528F3D0656FC0C11590E33B
:1008E000D90708F079C0CE019F70E7CF811525E5C3
:1008F000920758F5811534E5930708F0A6C08115D5
:1009000042E5940750F4C11581E5D80708F471C099
:10091000DC2FCC27C16FD06A50C0982F9695969542
:100920009E0123703327C115D34508F07FC0C1E075
:10093000D0E002C0CC0FDD1F2A95E2F720E2929FA3
:10094000C0011124C82BD92B6FC0C11589E5D80768
:10095000A8F4C11598E5D90708F07CC0C11526E5B3
:10096000D20708F09ECF8C2F0E94D405C82FD0E06C
:10097000DC2FCC27CC27DF71D0621FC0C1153AE530
:10098000D30708F46CC0CE0190568115904208F050
:1009900088CF8D2F8F710E94D40590E0982F8827E3
:1009A00088279F719C012C2BE901E6CFC55AD0E026
:1009B000C15EDD4FC881D0E0D064CE01DF91CF9120
:1009C0000895C85AD0E0CC0FDD1FCF50DE4F0990FC
:1009D000D881C02DD464F1CFCE019927D3FF03C0B5
:1009E000EC01D86CEACFEC01D06CE7CFDF70D06AB5
:1009F000E4CFCE01E4E096958795EA95E1F7837020
:100A00002C2F26952695237090E2299F9001112482
:100A1000382B8C2F8370C1E0D0E002C0CC0FDD1FDB
:100A20008A95E2F7C22BD32BDC68C7CFC1E0D0E0B8
:100A300002C0CC0FDD1F2A95E2F730E2939FC00180
:100A40001124C82BD92BDA68B8CFD82FCC27C46F84
:100A5000D06AB3CFDC2FCC27C06FD06AAECF8C2F3B
:100A60008F700E94D40534E0D695C7953A95E1F78A
:100A7000CF709C2FEC01D069A0CF82389105B1F1E5
:100A8000B0F48133910509F475C048F489329105B9
:100A900009F469C08A32910509F473C00895853359
:100AA000910509F459C08933910501F10895833EF8
:100AB0009105A9F138F4803E9105F9F0823E910547
:100AC00049F10895863E9105A9F1873E9105C9F146
:100AD000843E910519F520912D0421FF1FC08091BE
:100AE0002C0484FD14C087EE90E0089520912C041E
:100AF0002370A1F080EE90E0089520912C0420FD59
:100B000047C030912D0430FF09C024FF44C090E05D
:100B100080E004C020912C0422FDF7CF089520919D
:100B20002C0422FD3BC030912D0430FDE3CF24FF87
:100B3000F5CFEDCF20912C0423FFF0CF24FDE7CF9C
:100B4000D2CF20912C0423FD2CC030912D0431FFF5
:100B5000EECF84EE90E0089520912C0425FFDECFA7
:100B600089E290E0089520912C0425FFD7CF85E3FA
:100B700090E0089520912C0426FFD0CF8AE290E0E7
:100B8000089520912C0426FFC9CF81E390E00895B9
:100B900089E390E0089583EE90E0089582EE90E07E
:100BA000089586EE90E0089590912C0492FF06C07F
:100BB000282F28712830F9F4877F846093FF06C0BE
:100BC000282F28712831F1F4877E846120912D042B
:100BD00020FF06C0382F38713830D9F4877F816004
:100BE00021FF06C0282F28712831D1F4877E81612A
:100BF00094FD877E0895282F24712430F9F68B7F89
:100C00008860DCCF282F2471243101F78B7E886126
:100C1000DDCF382F3171313019F78E7F8860E0CF0A
:100C2000282F2171213121F78E7E8861E1CF08952F
:100C30000C94170608950C941A06E82FF0E0EE0FB6
:100C4000FF1FE15BFC4F808191810895089580EA48
:100C50008A95F1F7089500C008950C942706F8943A
:100C6000E82FE295EF70F0E031A1282F2F7081E09E
:100C700090E001C0880F2A95EAF7982F909593236A
:100C800091A392A1892B82A378940895CF93DF93A7
:100C900083E30E942F0682E30E942F0686EC0E94C7
:100CA0002F0685E30E942F06C2E2D2E089910E94BE
:100CB0002F0682E0CE32D807C9F71092480310926F
:100CC00047031092500310924F0310924A03109260
:100CD0004903109252031092510310924C03109248
:100CE0004B03109254031092530310924E03109230
:100CF0004D03109256031092550384E00E9408079A
:100D0000DF91CF910C949903AF92BF92CF92DF9273
:100D1000EF92FF920F931F93CF93DF930EE212E0B7
:100D2000C7E4D3E0C12CD12CEE24E394F12CF801DC
:100D300081918F01F894E82FE295EF70F0E021A106
:100D40008F70A70102C0440F551F8A95E2F7CA01B0
:100D5000922F982B91A392A18095892382A37894B6
:100D60000E942B06E2E2F2E030E020E0B12CA12C60
:100D70004191A42FA295AF70B0E090968C9190E035
:100D80004F7002C0959587954A95E2F780FD3BC06C
:100D9000C701022E02C0880F991F0A94E2F7A82A01
:100DA000B92A2F5F3F4F2C30310511F7F8013197E9
:100DB00080810E942F0653E0C5120E942D06888173
:100DC0009981A816B90611F1B982A88281E0D82AC2
:100DD000C394229684E0C812AACF2D2D44E06FE47C
:100DE00073E087E493E00E9409070E94A5038D2D1C
:100DF000DF91CF911F910F91FF90EF90DF90CF90F7
:100E0000BF90AF90089590E080E0C9CF80E0DFCF41
:100E10000895FF920F931F93CF93DF93F82E092F1E
:100E2000162FD72FC42F222349F081E08093780218
:100E30000E94D32790937702809376028091780264
:100E40008823A1F080917602909177020E94EB278F
:100E5000069760F0EF2DF02FA12FBD2F90E080E0DE
:100E6000D0E08C179D0744F010927802DF91CF916B
:100E70001F910F91FF900895219131912D933D93F2
:100E80000196EFCF80917F0280FF12C06091D80160
:100E900085E0689FB00111247595679575956795F4
:100EA00060387105A8F561157105A1F1862F0895C7
:100EB00081FF09C06091D80185E0689FB0011124CD
:100EC00075956795EDCF6091D80182FD0AC080913C
:100ED0007E028823D1F09091D7016091D8018917C3
:100EE00028F085E0689FB0011124DACF869FB00119
:100EF000112485E0869F9001879F300D1124692F72
:100F000070E0C9010E945C2FCBCF65E070E0CECFCE
:100F10008FE7089581E0089580917F0280FF0CC0E3
:100F20006091D40170E07595679575956795611529
:100F3000710549F1862F089581FF06C06091D401A3
:100F400070E075956795F3CF6091D40182FD0BC079
:100F500090917D029923A1F06091D3018091D401F9
:100F6000961738F0682F70E06038710500F38FE74E
:100F70000895899FC001112470E00E945C2FF4CF76
:100F800061E070E0D7CF81E008958D3E31F40E949A
:100F9000420781958093830208958E3E19F40E9442
:100FA0004207F8CF8F3E31F40E944207819580932B
:100FB00082020895803F19F40E944207F8CF893FCA
:100FC00029F40E948C078093840208958A3F21F4BB
:100FD0000E948C078195F7CF8B3F31F40E948C07DC
:100FE00081958093850208958C3F19F40E948C07A7
:100FF000F8CF9FE0980F983070F4815F990B21E053
:1010000030E001C0220F8A95EAF780918102822B9D
:101010008093810208958D3F31F480917F02816039
:1010200080937F0208958E3F21F480917F02826039
:10103000F7CF8F3FB9F780917F028460F1CF409165
:1010400082028D3E59F48091830287FF0DC0109279
:10105000830241110BC010927E0208C08E3E81F4C3
:101060008091830218169CF3442381F080918402BE
:1010700090918502892B09F05AC010927D02089543
:101080008F3E49F447FFF0CF109282028091830295
:101090008111ECCFE0CF803F19F41416ACF3E4CF0C
:1010A00090918402893F29F41916F4F61092840273
:1010B000DBCF8A3F19F497FFD7CFF8CF9091850205
:1010C0008B3F29F497FFD0CF10928502CDCF8C3F74
:1010D00019F41916CCF3C8CF9FE0980F983090F40C
:1010E000815F990B21E030E0B90102C0660F771FE4
:1010F0008A95E2F7CB0180959091810289238093B4
:101100008102B2CF8D3F31F480917F028E7F809338
:101110007F02AACF8E3F21F480917F028D7FF7CF8F
:101120008F3F09F0A1CF80917F028B7FF0CF089590
:101130000E94D3279C019091820280918302982B78
:1011400021F030937C0220937B0290918402809165
:101150008502982B21F030937A022093790280E85F
:1011600092E00C943A1BEF92FF920F931F93CF9350
:10117000DF9300D000D000D0CDB7DEB786E0E0E846
:10118000F2E0DE01119601900D928A95E1F7E09070
:101190008202F090830200918402109185021092E5
:1011A00082021092830210928402109285028E2D88
:1011B0008F2991F080917B0290917C020E94EB2715
:1011C000AC0190917E02992309F43FC08091D9012E
:1011D0008417150608F447C0802F812B91F0809169
:1011E000790290917A020E94EB27AC0190917D02E6
:1011F000992309F477C08091D5018417150608F466
:101200007FC08091820290918302892B9091840209
:10121000892B90918502892B11F00E94980886E015
:10122000FE013196A0E8B2E001900D928A95E1F7B7
:1012300026960FB6F894DEBF0FBECDBFDF91CF91DB
:101240001F910F91FF90EF9008952091DA018AE0AD
:10125000289F900111242417350708F0BDCF9F5F08
:1012600090937E0202C09F3FD1F7EE2059F00E947A
:1012700042079FEF1E140CF491E0899F802D1124EA
:1012800080938202FF2059F00E9442079FEF1F14B3
:101290000CF491E0899F802D11248093830230917A
:1012A0008202332309F498CF20918302222309F488
:1012B00093CF45EB3403C0011124992359F0909347
:1012C000820245EB240390011124332339F030933B
:1012D000830282CF81E080938202F3CF81E080930A
:1012E00083027ACF2091D6018AE0289F90011124B1
:1012F0002417350708F085CF9F5F90937D0202C0C9
:101300009F3FD1F7002359F00E948C079FEF1016E2
:101310000CF491E0899F802D112480938402112385
:1013200059F00E948C079FEF11160CF491E0899FF1
:10133000802D11248093850230918402332309F497
:1013400060CF20918502222309F45BCF45EB340363
:10135000C0011124992359F09093840245EB240392
:1013600090011124332339F0309385024ACF81E074
:1013700080938402F3CF81E08093850242CF86E0A0
:10138000E0E8F2E0DF011D928A95E9F710927E0213
:1013900010927D0210927F020895EF92FF920F93B8
:1013A0001F93CF93DF93EB01E82FD11110C044239B
:1013B00021F0F0E0E451FD4FE4916E2F7E2F8E2F4F
:1013C000DF91CF911F910F91FF90EF9008950D2F16
:1013D00010E0282F30E0442329F024513D4FF9013B
:1013E000249130E0F6E0CF9FC0011124EFEFF0E050
:1013F000BF010E94482FAB018C2F90E0880F991FEE
:10140000A5E5A49FB001A59F700D1124861B970B25
:10141000982F990F980FBF01601B710B629FD0012D
:10142000639FB00D729FB00D11248B2F9D9FB00153
:101430001124672F7727EF01C61BD70BBE01629FD0
:10144000E001639FD00D729FD00D11247F01E91A36
:10145000F108E09EB001E19E700DF09E700D112428
:10146000672F7727E61BF70BE29F8001E39F100DA4
:10147000F29F100D1124E12F722F4230510599F087
:1014800048F44115510569F04130510581F0EB2FC9
:101490008D2F07C04430510569F080F0463051056A
:1014A000B1F76E2F8DCFE22F7B2F812FFACFE22F56
:1014B0007D2FF7CFEB2F822F712FF3CF7B2F822F32
:1014C000ED2FEFCF41E00C94CD0930E020E0869F76
:1014D000212D969F200D311D1124C9010895AC01C5
:1014E0008230910508F408959FEF413E8EE1580740
:1014F00040F49A0195E0369527959A95E1F798E0A2
:10150000920F61E0E62FE90FFF27FF1F9F0135953E
:101510002795822F229FF001239FF00DF00D1124BB
:101520004E175F0738F49FEF920F961758F78FEF1B
:10153000860F08952F3FE9F361E0620FF6CFE82FA1
:1015400086FDE0952E2F2F7086FD2F5FE695E695A0
:10155000E695E670F0E0EE5CFD4F9181929F902D54
:10156000212D112492959F702295207F922B20810E
:10157000920F87FD919580E8890F0895E42FF0E0A0
:10158000EE0FFF1FEC5CFE4F408134EE439F412D78
:101590001124E72FF0E050E0445E5F4FDA01A21B18
:1015A000B1099D01B7FF03C031952195310993E041
:1015B000220F331F9A95E1F7AF01421B530B9A019B
:1015C00057FD20E0279F212D1124722F0895E42F2D
:1015D000F0E0EE0FFF1FEC5CFE4F408134EE439FC6
:1015E000412D1124E82FF0E050E0445E5F4FDA0116
:1015F000A21BB1099D01B7FF03C0319521953109A7
:1016000093E0220F331F9A95E1F7AF01421B530B72
:101610009A0157FD20E0582F259F212D1124822F5C
:101620000895622F0895E42FF0E0EE0FFF1FEC5CA9
:10163000FE4F6081621B0895E42FF0E0EE0FFF1F64
:10164000EC5FFE4F61A9621B0895322F50E0FA0152
:10165000EE0FFF1FEC5FFE4F91A9905297FD919501
:10166000440F551FFA01EC5CFE4F2081231B330B06
:10167000290F311D97FD3A95620F0895EF920F9350
:10168000972F23E0029FB0011124759567956E0D89
:10169000792F0F91EF9008950F93CF93DF93D72F6A
:1016A000C82F47FD419588E390E0841B910947FDD1
:1016B0009395889FB001899F700D700D1124229F12
:1016C000C001239F900D900D1124860F971F0E943B
:1016D0006F0A982F990F890F682F600F7D2F8C2F1D
:1016E000DF91CF910F9108950F931F93522F10E028
:1016F000F801EE0FFF1FEC5FFE4FA1A9A052BB0B3C
:101700009D015203F001539FF00D1124000F111F92
:10171000D801AC5CBE4F0C910057110B40039001F7
:10172000419F300D11242E0F3F1F37FF02C021585B
:101730003F4F220F232F221F330B620F1F910F9158
:1017400008950F931F93522F10E0F801EE0FFF1F23
:10175000EC5FFE4FA1A9A052BB0B9D015203F0010B
:10176000539FF00D1124000F111FD801AC5CBE4F28
:101770000C910057110B40039001419F300D112433
:101780002E0F3F1F37FF02C0215C3F4F96E035957B
:1017900027959A95E1F7620F1F910F9108950F9386
:1017A0001F9310E0F801EE0FFF1FEC5CFE4F9081DD
:1017B000905797FD9195000F111FF801EC5FFE4FB8
:1017C00001A90052110B2003F001219FF00D1124FB
:1017D00008E310E0091B110997FD139540039001E0
:1017E000419F300D1124E20FF31F9F01220F331F81
:1017F0002E0F3F1F37FF02C021583F4F220F232FCC
:10180000221F330B620F1F910F9108950F931F93A7
:10181000CF93DF938B01D82FC42F822F0E949F0A72
:10182000EC2FF0E0EE0FFF1FEC5CFE4F9081905824
:10183000890F87FD8195880F682F2CE0629F612DAD
:101840001124600F712F8D2FDF91CF911F910F9178
:101850000895E42FF0E0EE0FFF1FEC5CFE4F908147
:10186000921B97FD9195292F38E1239F212D11245B
:10187000620F08954095282F429F412D1124842FF7
:10188000089522E8241B08F420E0620F0895EF92E7
:10189000FF920F93970195E0099F200D311D1124B0
:1018A0002F3F310519F010F02FEF30E02095382F41
:1018B000320F08F43FEF832F0F91FF90EF900895C0
:1018C000EF92FF920F931F930E0D1F2D111DF90123
:1018D00037FF03C0F195E195F10924E0EE0FFF1FFA
:1018E0002A95E1F7EF3FF10519F014F0EFEFF0E082
:1018F0009A0157FF03C031952195310994E0220FD9
:10190000331F9A95E1F72E173F070CF4F901E00F0A
:10191000F11FEF3FF10519F010F0EFEFF0E0E09567
:10192000282F3E2F230F08F42FEF822F1F910F91A6
:10193000FF90EF900895EF92FF920F93972F093445
:1019400038F4B701601B71096F3F710519F010F091
:101950006FEF70E0485F5F4F4131510540F0A901E2
:10196000485F5F4F4131510510F06FEF70E06095B7
:10197000482F460F08F44FEF842F37FF02C02D5F2A
:101980003F4F359527953595279560915803620F00
:10199000792F0F91FF90EF900895EF92FF920F93A0
:1019A0009701201B31092F3F310519F010F02FEF5F
:1019B00030E0322F3095482F430F08F44FEF842F3B
:1019C000620F0F91FF90EF900895EF92FF920F93A7
:1019D0009701201B31092F3F310519F010F02FEF2F
:1019E00030E02095382F320F08F43FEF832F0F910E
:1019F000FF90EF900895FC019B01009729F480E08F
:101A000077FF2BC080E80895AC0197FF04C04427FE
:101A10005527481B590BB901640F751F37FD10C0BE
:101A2000241B350BC901A5E0880F991FAA95E1F782
:101A30000E945C2F80E2861BF7FF0FC081950895FE
:101A4000CB0165E0880F991F6A95E1F7BA01621B27
:101A5000730B0E945C2F80E6EECF08950F931F93C7
:101A6000CF93DF93D62F172FC82FC901272F201B05
:101A7000022FBA010E94FB0C982F990F990F782F13
:101A8000791B700F719F712D11246D2F8C2FDF9199
:101A9000CF911F910F9108950F931F93CF93DF93D1
:101AA000D62FC72F182FC901212F201B022FBA01B3
:101AB0000E94FB0C982F990F990F891B800F282FDC
:101AC000219F212D1124822F6D2F7C2FDF91CF910B
:101AD0001F910F910895EF920F931F93CF93DF9370
:101AE000D62F172FC82FC9010E19070FBA010E9450
:101AF000FB0C702F781B719F712D11246D2F8C2F73
:101B0000DF91CF911F910F91EF900895EF920F9376
:101B10001F93CF93DF93D62FC72F182FC9010E190C
:101B2000010FBA010E94FB0C081B202F219F212DC1
:101B30001124822F6D2F7C2FDF91CF911F910F9158
:101B4000EF9008950F93CF93DF93D72FC82FC9013C
:101B5000BA010E94FB0C682F600F7D2F8C2FDF9144
:101B6000CF910F910895EF920F93CF93DF93D72FDB
:101B7000C82FC9010E19BA010E94FB0C602F681B07
:101B80007D2F8C2FDF91CF910F91EF9008950C94C2
:101B9000620A45E050E06CE170E087E593E00C9468
:101BA0001C3045E050E06CE170E087E593E00C9478
:101BB0003A30E7E5F3E085E380838091EE01909190
:101BC000EF01A091F00181839283A3838FE7848347
:101BD0000C94D10D80E008950F931F93CF93DF9362
:101BE000C82FD62F8A010E94EA0D9CE0C99FB00140
:101BF00011246C5F7E4F6D0F711DFB0190819F3F23
:101C000029F0F801E80FF11D90838F5FDF91CF91EC
:101C10001F910F910895E0914002F09141020994C3
:101C2000E0913C02F0913D0209943F924F925F9205
:101C30006F927F928F929F92AF92BF92CF92DF92DC
:101C4000EF92FF920F931F93CF93DF933C012B01F1
:101C5000FC01C0818BE0C89FC02D11241BE01C0F2C
:101C6000F12E163310F035E3F32E60915B03669589
:101C700080915C0390915D030E94650A382ED0E04C
:101C8000CE01880F991F9C012C5F3E4F6901CF1533
:101C9000B0F081E0153308F080E0DF91CF911F9123
:101CA0000F91FF90EF90DF90CF90BF90AF909F90FB
:101CB0008F907F906F905F904F903F900895FE01BE
:101CC000E256FE4F8081F3019181892379F1F6017B
:101CD00080A9282F2057330B590181A9E82FE05202
:101CE000FF0B4F01AA9C9001AB9C300D300D1124CD
:101CF000EE9FC001EF9F900D900D1124820F931F56
:101D00000E946F0A082F60915803709159038091C7
:101D10005A03E32C9401A501F20109950E94C70D15
:101D2000462F282F672FCE010E94100EF2E0CF0E13
:101D3000D11C2196ACCF6BE67DE00C94150E66E8C5
:101D40007DE00C94150E6EE37BE00C94150E63EBB6
:101D50007DE00C94150E8F929F92AF92BF92CF921E
:101D6000DF92EF92FF920F931F93CF93DF935C016B
:101D70006B01FC01C0818BE0C89FC02D11241BE0CA
:101D80001C0F912E163310F035E3932E60915B03F8
:101D9000669580915C0390915D030E94650A882E90
:101DA000D0E0CE01880F991F9C012C5F3E4F790136
:101DB000C91588F081E0153308F080E0DF91CF91FC
:101DC0001F910F91FF90EF90DF90CF90BF90AF9059
:101DD0009F908F900895FE01E256FE4F8081F5019D
:101DE00091818923C1F0F70121A92052330B40A929
:101DF0004057550B609158037091590380915A03D5
:101E0000082DF60109950E94C70D462F282F672F30
:101E1000CE010E94100EF2E0EF0EF11C2196C8CF09
:101E20006EE27DE00C94AB0E6CE47DE00C94AB0EA6
:101E30006CE47BE00C94AB0E62EA7DE00C94AB0E9C
:101E4000BF92CF92DF92EF92FF920F931F93CF93A7
:101E5000DF936C017B01FC01C0818BE0C89FC02D2A
:101E600011241BE01C0F012F163308F005E36091CD
:101E70005B036695669580915C0390915D030E947B
:101E8000650AB82ED0E0C01770F081E0153308F075
:101E900080E0DF91CF911F910F91FF90EF90DF9045
:101EA000CF90BF900895FE01E256FE4F8081F6016B
:101EB0009181892391F06091580370915903809129
:101EC0005A032B2D4C2FF70109950E94C70D462F61
:101ED000282F672FCE010E94100E2196D4CF6EEBD3
:101EE0007AE00C94200F67EE7AE00C94200F61E109
:101EF0007BE00C94200F63E17BE00C94200F6CE1FD
:101F00007BE00C94200F65E27BE00C94200F66E0F0
:101F10007CE00C94200F69E27CE00C94200F7F920F
:101F20008F929F92AF92BF92CF92DF92EF92FF92E9
:101F30000F931F93CF93DF935C016B01FC01C08172
:101F40008BE0C89FC02D11241BE01C0F912E16336F
:101F500010F035E3932E60915B0366956695809152
:101F60005C0390915D030E94650AF82E80E48F0D5A
:101F70000E949F0A90E8892E880E8F2D0E949F0A4A
:101F800020E8722E780ED0E0C91590F081E015336C
:101F900008F080E0DF91CF911F910F91FF90EF90BB
:101FA000DF90CF90BF90AF909F908F907F900895DB
:101FB000FE01E256FE4F8081F50191818923A1F057
:101FC000609158037091590380915A03EF2C0C2FA4
:101FD000272D482DF60109950E94C70D462F282F61
:101FE000672FCE010E94100E2196CECF64E77BE0D2
:101FF0000C948F0F61EA7BE00C948F0F6FEC7BE009
:102000000C948F0FAF92BF92CF92DF92EF92FF921C
:102010000F931F93CF93DF937C016B01FC01C08171
:102020008BE0C89FC02D11242BE0B22EBC0EAB2C30
:10203000F5E3FB1510F495E3A92E20915B0330E046
:1020400050E040E06FEF7FEF80E090E00E94702F63
:102050008901D0E02C2FCA1580F081E0F4E3FB1554
:1020600008F480E0DF91CF911F910F91FF90EF90E6
:10207000DF90CF90BF90AF900895FE01E256FE4FE3
:102080008081F70191818923F1F0409160034150F3
:10209000042E000C550B47FF18C0C80160915B036C
:1020A0000E94650AAC0160915803709159038091B8
:1020B0005A03F60109950E94C70D462F282F672F56
:1020C000CE010E94100E2196C5CFFA01E05AFC4FB6
:1020D000818982130AC0FA01EE0FFF1FE05AFC4FFC
:1020E000818D928D80179107C8F241505109D3CF4D
:1020F0006AE37CE00C94021061E47CE00C94021032
:102100002F923F924F925F926F927F928F929F9207
:10211000AF92BF92CF92DF92EF92FF920F931F93F5
:10212000CF93DF93CDB7DEB72B970FB6F894DEBF12
:102130000FBECDBF8C832B015F834E83FB01F081EB
:102140008BE0F89F802D11248983855F8A838B83A0
:10215000863310F025E32B83309160033D83998112
:10216000892F90E09B878A87880F991FFC01EC5F7D
:10217000FE4F6F01FC818F2F90E09C012F5F3F4F3E
:1021800039872887EB81FA85FE17F0F081E02A81F4
:10219000253308F080E02B960FB6F894DEBF0FBE13
:1021A000CDBFDF91CF911F910F91FF90EF90DF9006
:1021B000CF90BF90AF909F908F907F906F905F90E7
:1021C0004F903F902F900895EA85FB85E256FE4F91
:1021D0008081F2019181892301F120905803309090
:1021E000590328853985205A3C4F39013C81398370
:1021F00010E029813D812317C8F020915A03129FD6
:10220000112D1124B101812F0E94C70D462F282FB7
:10221000672F8A859B850E94100E8A859B85019673
:102220009B878A8792E0C90ED11CACCFF3018191C4
:102230003F01F601A0A8A81ABB0881A8F301878175
:10224000881A9908AA9C9001AB9C300D300D11247E
:10225000889CC001899C900D900D1124820F931FC2
:102260000E946F0A082FF301EE0FFF1FE056F340A4
:1022700060915B03858996890E94650A7C019401BF
:10228000A501B101812FEE81FF8109951B01F98123
:10229000FF5FF983182FADCF2091600331E0231B3E
:1022A00008F420E047E45CE0BC01822F0C9480102D
:1022B00047E45CE0BC0180E00C9480102091600356
:1022C00031E0231B08F420E040E65CE0BC01822FF3
:1022D0000C94801040E65CE0BC0180E00C9480101F
:1022E0002091600331E0231B08F420E04BE95CE01F
:1022F000BC01822F0C9480104BE95CE0BC0180E0B3
:102300000C9480102091600331E0231B08F420E03E
:102310004DEC5CE0BC01822F0C9480104DEC5CE035
:10232000BC0180E00C9480102091600331E0231BFD
:1023300008F420E045EE5CE0BC01822F0C94801094
:1023400045EE5CE0BC0180E00C948010BF92CF921F
:10235000DF92EF92FF920F931F93CF93DF937C0155
:10236000FC01C0818BE0C89FC02D11241BE01C0F15
:10237000012F163308F005E360915803709159035B
:1023800080915A030E94C70DD62EC72EB82ED0E0DA
:10239000C01770F081E0153308F080E0DF91CF9135
:1023A0001F910F91FF90EF90DF90CF90BF90089515
:1023B000FE01E256FE4F8081F7019181892331F0C1
:1023C0002B2D4D2D6C2DCE010E94100E2196E0CFAD
:1023D0008F929F92AF92BF92CF92DF92EF92FF9235
:1023E0000F931F93CF93DF937C01FC01C0818BE09F
:1023F000C89FC02D11241BE01C0F012F163308F0BD
:1024000005E3C0905903D0905A03D09158036D2F23
:102410007C2D8D2D0E94C70DB62EA72E982E609173
:102420005B036D0F7C2D8D2D0E94C70DD62EC72E00
:10243000882ED0E0C01788F081E0153308F080E0E6
:10244000DF91CF911F910F91FF90EF90DF90CF9090
:10245000BF90AF909F908F900895FE01E256FE4F7F
:102460009081F7018181892359F0282D4D2D6C2D04
:1024700090FD03C0292D4B2D6A2DCE010E94100E18
:102480002196D8CFBF92CF92DF92EF92FF920F9317
:102490001F93CF93DF937C01FC01C0818BE0C89F29
:1024A000C02D11241BE01C0FD12E163310F095E324
:1024B000D92EC0905903B0905A0320915B0300E4D9
:1024C000029F012D1124D0E0CD1570F081E015336D
:1024D00008F080E0DF91CF911F910F91FF90EF9076
:1024E000DF90CF90BF900895FE01E256FE4F8081AD
:1024F000F70191818923B9F0FE01EE0FFF1FEC5F18
:10250000FE4F81A982958F7060915803809F600D66
:1025100011247C2D8B2D0E94C70D462F282F672F4D
:10252000CE010E94100E2196CFCFBF92CF92DF92A4
:10253000EF92FF920F931F93CF93DF938C01FC01D7
:10254000C0818BE0C89FC02D11245BE0F52EFC0EEE
:10255000DF2CF5E3FF1510F445E3D42EC0905903AA
:10256000B0905A0320915B0330E4E32E3E2D329F5E
:10257000312D1124E32ED0E0CD1578F081E034E345
:102580003F1508F480E0DF91CF911F910F91FF90EC
:10259000EF90DF90CF90BF900895FE01E256FE4F7E
:1025A0008081F80191818923D9F0FE01EE0FFF1F90
:1025B000EC5FFE4F60A9E69EB001112495E0759591
:1025C00067959A95E1F780915803680F7C2D8B2DC4
:1025D0000E94C70D462F282F672FCE010E94100E94
:1025E0002196CACFBF92CF92DF92EF92FF920F93C4
:1025F0001F93CF93DF938C01FC01C0818BE0C89FB8
:10260000C02D11249BE0F92EFC0EEF2CF5E3FF15F5
:1026100010F485E3E82ED0905803D0915903C09070
:102620005A0360915B0366956695669580915C039D
:1026300090915D030E94650A0E949F0A805887FD61
:102640008195880F282F3C2D239F212D1124822F27
:102650006D2D7D2F0E94C70DD62EC72EB82ED0E02F
:10266000CE1578F081E024E32F1508F480E0DF91A7
:10267000CF911F910F91FF90EF90DF90CF90BF907F
:102680000895FE01E256FE4F8081F8019181892371
:1026900031F02B2D4D2D6C2DCE010E94100E219668
:1026A000DFCFDF92EF92FF920F931F93CF93DF93D1
:1026B0008C01FC01E256FE4F8081682381F1D090AD
:1026C0005903D0915A03C0915803EC2EF12C0E946B
:1026D0000330282FC7018C549F4F68E671E00E9499
:1026E0005C2F8E199F0997FD039695958795959573
:1026F000879523706C2F289F600D11247D2D8D2FC1
:102700000E94C70D462F282F672FC801DF91CF9158
:102710001F910F91FF90EF90DF900C94100EDF91BE
:10272000CF911F910F91FF90EF90DF900895DF926E
:10273000EF92FF920F931F93CF93DF938C01FC01D5
:10274000C281C11125C060915B0320E1620F08F4D2
:102750006FEF80915C0390915D030E94650A6AE0CF
:1027600070E00E94482F892B51F40E94033065E3EA
:1027700070E00E945C2FF80161810E9451138C2F40
:10278000DF91CF911F910F91FF90EF90DF9008950F
:10279000C0818BE0C89FC02D11248BE0D82EDC0EA9
:1027A0008D2DF5E3FD1508F485E3D0E0E82EF12C3E
:1027B000CE15DF0534F0C1E0F4E3FD1500F7C0E00D
:1027C000DECFF8016181CE010E9451132196F0CF36
:1027D0001F93CF93DF93EC01FC01E256FE4F808103
:1027E0006823A1F00E940330182F0E940330612F4C
:1027F000782F80915A030E94C70D462F282F672FEC
:10280000CE01DF91CF911F910C94100EDF91CF91EB
:102810001F910895DF92EF92FF920F931F93CF9332
:10282000DF938C01FC01C281C11125C060915B0363
:1028300020E1620F08F46FEF80915C0390915D03DB
:102840000E94650A65E070E00E94482F892B51F4D0
:102850000E94033065E370E00E945C2FF801618103
:102860000E94E8138C2FDF91CF911F910F91FF9061
:10287000EF90DF900895C0818BE0C89FC02D112498
:102880008BE0D82EDC0E8D2DF5E3FD1508F485E3E5
:10289000D0E0E82EF12CCE15DF0534F0C1E0F4E3F2
:1028A000FD1500F7C0E0DECFF8016181CE010E9486
:1028B000E8132196F0CFBF92CF92DF92EF92FF9272
:1028C0000F931F93CF93DF937C01FC01C0818BE0BA
:1028D000C89FC02D11241BE01C0F012F163308F0D8
:1028E00005E3C0905903D0905A03D09158036091EA
:1028F0005B0366956695669580915C0390915D0398
:102900000E94650A0E949F0A805887FD8195880F62
:10291000682F2CE0629F612D11246D0F7C2D8D2D71
:102920000E94620AD62EC72EB82ED0E0C01770F0D3
:1029300081E0153308F080E0DF91CF911F910F9176
:10294000FF90EF90DF90CF90BF900895FE01E25688
:10295000FE4F8081F7019181892331F02B2D4D2D80
:102960006C2DCE010E94100E2196E0CFE0913E0228
:10297000F0913F020994CF92DF92EF92FF920F9372
:102980001F93CF93DF93CDB7DEB728970FB6F89498
:10299000DEBF0FBECDBF182F062FF42E0E949F1B47
:1029A000882309F44BC0FF2009F457C0AE014F5FE4
:1029B0005F4F602F812F0E94EC0DF82EE090860271
:1029C0000F2D10E0C8018E0D911D099764F188E06C
:1029D00090E06C01C01AD10AB80169577D4FA60179
:1029E00087E892E00E941330B80161577D4FA6013D
:1029F0008FE892E00E941330A601440F551FB801E2
:102A0000660F771F61567D4F8FE992E00E94133069
:102A1000B80169567D4FA60187E992E00E94133004
:102A2000EA94E092860210918602DE01119640E05F
:102A3000842F810FF41213C08093860228960FB65C
:102A4000F894DEBF0FBECDBFDF91CF911F910F91E4
:102A5000FF90EF90DF90CF900895F12CAFCF5D9174
:102A6000252F30E090E0BC016A577D4FF901EE0F51
:102A7000FF1FEC5CFE4F0081FB010183220F331F1F
:102A8000F901EC5FFE4F21A9FB012187518B880FD3
:102A9000991FFC01EA57FD4F128E118E4F5FC8CF70
:102AA000089508950E9450150C94511508950895A5
:102AB000CF93DF93FC01C0818BE0C89FC02D112410
:102AC000D5EFDC0FC63308F0C5E36C2F8D2F0E94C5
:102AD00056156C2F8D2FDF91CF910C9457154F9277
:102AE0005F926F927F928F929F92AF92BF92CF929E
:102AF000DF92EF92FF92CF936091AF027091B0029C
:102B00008091B1029091B2020E94FA276B017C0180
:102B10000E94DF274B015C018092AF029092B002CD
:102B2000A092B102B092B202A0918602E6E8F2E071
:102B30008A2F90E04FEF5FEF60E070E04C195D0985
:102B40006E097F09A9132AC0809386028091B3027F
:102B5000C0E0811108C080915703C82FC37019F0DD
:102B6000C82FC695C6958091DB01813009F440C01D
:102B7000882339F1823009F44AC1833009F452C103
:102B8000CF91FF90EF90DF90CF90BF90AF909F904C
:102B90008F907F906F905F904F900895218D328D30
:102BA0002901712C612C441555056605770520F423
:102BB00081509F5F3296C6CF2C0D3D1D328F218FE5
:102BC000F8CF1092DC0180925C0390925D03A0929A
:102BD0005E03B0925F0389E2E6E8F2E0A0E6B3E0CC
:102BE00001900D928A95E1F781E08093DB01C8CFD7
:102BF0008091DF01C81316C0909157039370209104
:102C0000E00130E081E09217130609F480E0817062
:102C10008093DE01C83278F4EC2FF0E0EE56FF4CE2
:102C20000C948F2F81E0F3CF882359F040E060E0CF
:102C300080E00E94B61480E004C08CED91E00E9418
:102C4000A6119091DC019F5F9093DC018111DBC0A4
:102C500082E08093DB018091DE018111D4C0CC231E
:102C600009F4DEC00E9452158CED91E0CF91FF90E7
:102C7000EF90DF90CF90BF90AF909F908F907F901C
:102C80006F905F904F900C9458158CED91E00E94DE
:102C9000E811D7CF8CED91E00E944212D2CF8CED9B
:102CA00091E00E949512CDCF8CED91E00E94F2123E
:102CB000C8CF8CED91E00E946F0FC3CF8CED91E0F7
:102CC0000E94730FBECF8CED91E00E94100FB9CF20
:102CD0008CED91E00E94140FB4CF8CED91E00E9436
:102CE0009B0EAFCF8CED91E00E949F0EAACF8CED92
:102CF00091E00E94770FA5CF8CED91E00E947B0FB1
:102D0000A0CF8CED91E00E947F0F9BCF8CED91E0E6
:102D10000E94830F96CF8CED91E00E94A30E91CF7D
:102D20008CED91E00E94180F8CCF8CED91E00E9409
:102D30001C0F87CF8CED91E00E94A70E82CF8CED07
:102D400091E00E94F60F7DCF8CED91E00E94FA0F8A
:102D500078CF8CED91E00E94FE0F73CF8CED91E067
:102D60000E9497136ECF8CED91E00E940A1469CFF8
:102D70008CED91E00E945B1464CF8CED91E00E9499
:102D8000870F5FCF8CED91E00E948B0F5ACF8CEDB7
:102D900091E00E94781055CF8CED91E00E947C105C
:102DA00050CF8CED91E00E944C114BCF8CED91E017
:102DB0000E94581146CF8CED91E00E945E1141CFE8
:102DC0008CED91E00E946A113CCF8CED91E00E9465
:102DD000701137CF8CED91E00E947C1132CF8CEDD9
:102DE00091E00E9482112DCF8CED91E00E948E1116
:102DF00028CF8CED91E00E94941123CF8CED91E0CF
:102E00000E94A0111ECFCC2309F4BACE2BCFC093C1
:102E1000DF018091570383708093E0010E940B0EC5
:102E200083E0E3CE60915C0370915D0380915E036B
:102E300090915F030E94FA27603171058105910529
:102E400008F49ECE1092DB019BCEE0913A02F09105
:102E50003B020995109260038FEF9FEF90937A03E6
:102E60008093790390937C0380937B0390937E03FC
:102E700080937D039093800380937F0390938203DC
:102E800080938103909384038093830390938603BC
:102E90008093850390938803809387031092860222
:102EA0009093A00280939F029093A2028093A1022C
:102EB0009093A4028093A3029093A6028093A5020C
:102EC0009093A8028093A7029093AA028093A902EC
:102ED0009093AC028093AB029093AE028093AD02CC
:102EE0000E945626811104C00E94FA260E94D90D24
:102EF0000E94C90D809157038C7F11F40C94D90D59
:102F00000895CF93C82F882329F040E060E080E047
:102F10000E94B614C093B302CF91089590915703C5
:102F200021E09227909357031092DB0181110C94BA
:102F3000D10D089581E00C948E17909157039370F2
:102F400099F0811109C09460909357031092DB01AE
:102F5000662351F00C94D10D883210F09C69F4CFA7
:102F6000880F880F982BF0CF089561E00C949D177F
:102F7000682F909157039695969581E0890F883236
:102F800008F081E00C949D1781E00C94B817682F2D
:102F900090915703969596958FEF890F09F487E2E4
:102FA0000C949D1781E00C94C71790915703937070
:102FB00049F0809358036093590340935A032111B9
:102FC0000C94D10D0895A7E5B3E01196EC911197FB
:102FD000F0E0282F13964C91139712966C91CF0125
:102FE00008960C94D51781E00C94E317E7E5F3E01D
:102FF0009181282F43816281E92FE850FF0BCF0197
:103000000C94D51781E00C94F617E7E5F3E06281A4
:1030100020E1620F08F46FEF9181282F4381892FFF
:1030200090E00C94D51781E00C940518E7E5F3E0E7
:10303000628120E1621B08F460E09181282F4381C6
:10304000892F90E00C94D51781E00C941618E7E5D1
:10305000F3E0438120E1420F08F44FEF9181282FE4
:103060006281892F90E00C94D51781E00C94271889
:10307000E7E5F3E0438120E1421B08F440E0918161
:10308000282F6281892F90E00C94D51781E00C9451
:10309000381820915B0330E1230F08F42FEF2093C1
:1030A0005B0381110C94D10D089581E00C944918B3
:1030B00020915B0330E1231B08F420E020935B03A5
:1030C00081110C94D10D089581E00C945818089545
:1030D000FC01EE0FFF1FE80FF91FE757FC4F61835C
:1030E000408322830895E9E8F3E08183608342838B
:1030F000339694E0E832F907C1F7089565E370E08C
:1031000089E893E00C94E718FA01811101C0FB01F2
:1031100009940F931F93CF938C01FB01C281CC23A1
:1031200009F453C00E949F258272F801E35CFC45BC
:10313000E431F10538F4E654FF4C0C948F2F0E94D3
:103140009A17C0E08C2FCF911F910F91089542EDF7
:1031500057E164EC77E10E948418F3CF44EC57E127
:1031600062ED77E1F8CF42E058E163EF77E1F3CF2A
:1031700043EF57E162E078E1EECF44E258E163E1EA
:1031800078E1E9CF43E158E164E278E1E4CF46E455
:1031900058E165E378E1DFCF45E358E166E478E1A3
:1031A000DACF44E658E165E578E1D5CF45E558E169
:1031B00064E678E1D0CF81E00E94B517C2CF85E008
:1031C000FBCF8DE0F9CF82E1F7CFC1E0BBCF6A9AA8
:1031D0004EB14B7F5EB15460EFB7F8949B01220F64
:1031E000331F260F371F280F391F2817390741F4BF
:1031F000EFBF8FE594E00197F1F700C0000008955C
:10320000DC016D91CD0178E05EB9000000C067FF80
:103210004EB9660F000000C000C000C04EB900C02B
:103220007A9591F7E2CF0F931F93CF93DF93C42F3B
:10323000D22FFC0182818823C9F04093B6020E94FC
:10324000D3279093B5028093B40280E28C0F88302C
:1032500008F050C0C77081E001C0880FCA95EAF736
:10326000DF91CF911F910F910C94A91D1091B6027F
:10327000141335C08091B4029091B5020E94EB27DF
:10328000883C910560F5C0E2CD0F1D17B9F080E2D2
:10329000810F883040F4177081E001C0880F1A95C3
:1032A000EAF70E94B01DC83048F481E09D2F977066
:1032B00001C0880F9A95EAF70E94A91D802F0E94ED
:1032C000A11DC830B8F4D77081E001C0880FDA952D
:1032D000EAF7DF91CF911F910F910C94B01D80E21E
:1032E0008C0F883038F4C77081E001C0880FCA9510
:1032F000EAF7EFCFDF91CF911F910F9108950F93D0
:103300009C01CB01243F4CE5340759F1A8F4293D39
:10331000FCE53F0701F12A3D4CE53407D1F1283D9A
:103320003C4591F406E221EE41EE68ED7CE50E9419
:10333000131980E00F910895263FFCE53F07E9F05F
:10334000B0F0273F3C45F9F0FC018281882339F138
:103350001092B602EFCF07E225EE45EE69ED7CE56F
:10336000E6CF06E221EE40EE64EF7CE5E0CF07E237
:1033700025EE44EE65EF7CE5DACF06E221EE42EE83
:1033800066EF7CE5D4CF07E225EE46EE67EF7CE5FD
:10339000CECF08E221E045EE6AED7CE5C8CF81E0C2
:1033A000C9CFCF93DF93EC01FB018281882309F41D
:1033B00019C1C230FCE5DF07C0F1C6319CE5D90771
:1033C00030F09E012B5F3C452930310570F50E949D
:1033D000692690932D0480932C04C031ECE5DE0720
:1033E00009F4CFC008F05BC0C8308CE5D80709F4F9
:1033F000B6C088F5C430ECE5DE0709F4A8C0C0F417
:10340000C2308CE5D80709F49CC080912C048260FE
:10341000C330DC4509F498C080912C0490912D04B0
:103420000E9477260E94222080E0DF91CF910895AC
:1034300080912C048061C630ECE5DE0709F484C07D
:1034400080912C048860C730DC4508F47DC08091F1
:103450002C04806279C0CC308CE5D80709F489C08F
:1034600070F480912C048C60CA30ECE5DE0709F41E
:103470006BC008F478C080912C048E7F65C0CE307C
:103480008CE5D80709F479C080912C048B7FCF306C
:10349000DC4508F459C080912C048F7E55C0CC3F88
:1034A000ECE5DE0709F457C030F5C3318CE5D807E9
:1034B00009F46FC078F4C131ECE5DE0709F465C0AA
:1034C000C231DC4509F0A8CF0E94222080912C0453
:1034D0008F773AC0C5318CE5D80709F462C008F48B
:1034E00076C080912D048160CB3FDC4509F094CFFC
:1034F00080932D0491CFC115FDE5DF0709F44DC080
:1035000088F480912D048D7FCE3F9CE5D90781F30F
:1035100080912D048E7FCF3FDC4550F380912D04A8
:103520008360E6CFC230FDE5DF0709F459C008F437
:1035300044C080E0C330DD4509F06ECF0E94FC2618
:103540006BCF80912C04816080932C0465CF809197
:103550002C048460F9CF80912D048260C9CF8091C2
:103560002C048064F1CF0E94222080912C0480687A
:10357000EBCF80912C048D7FE7CF80912C04877F47
:10358000E3CF80912C048F7DDFCF80912C048F7B43
:10359000DBCF80912C04837FD7CF80912D048C7F4B
:1035A000A7CF80912C0482FB992790F921E09227E4
:1035B00090FB82F990FB83F9C7CF80912D04982F5F
:1035C000909591708E7F892B90FB81F991CF0E940D
:1035D000222090912C04892F97FB87F98058B4CF33
:1035E00081E0ACCF81E021CFCF93DF93EB01863137
:1035F0009C4511F50E949F259A81992399F08A7A1A
:1036000091E009F490E09093B702811109C089E23A
:103610000E947A250E94EB2580E0DF91CF910895EA
:1036200085E3F6CF8091B702811104C089E20E9440
:103630008125F0CF85E3FBCF81E0EFCF9093BD02F2
:103640008093BC020895E091BC02F091BD023097D6
:1036500021F00190F081E02D099480E00895E0913F
:10366000BC02F091BD02309721F00280F381E02D81
:1036700009940895E091BC02F091BD02309739F0B1
:1036800022E0DC012C930480F581E02D099408955B
:103690002091BA023091BB022817390771F090933C
:1036A000BB028093BA02E091BC02F091BD02309758
:1036B00021F00680F781E02D099408952091B80249
:1036C0003091B9022817390771F09093B9028093AD
:1036D000B802E091BC02F091BD02309721F0008465
:1036E000F185E02D099408950E94DF276093CB02B5
:1036F0007093CC028093CD029093CE026093C70268
:103700007093C8028093C9029093CA02089585B746
:10371000806885BF85B7806885BF0895089508953E
:103720000C948E1B08950C94921B0E94871B8EE4B0
:1037300096E20E945E280E948F1B0C94901B81E0F1
:1037400008950C949F1B089508950E94CA270E9413
:1037500046060E9479280C94931B8F929F92AF92F9
:10376000BF92CF92DF92EF92FF920F931F93CF936E
:10377000DF93CDB7DEB72A970FB6F894DEBF0FBE42
:10378000CDBF0E94A31B0E94A41B0E94840681112E
:103790000E94741B5FEB852E52E0952E10E000E036
:1037A000E02E802F0E941D065C01F401C190D19093
:1037B0004F01C816D906B1F40F5F1F4F0430110531
:1037C00079F78FEF89838A831B820E94D3278160D8
:1037D000782F9D838C8349815A816B818D810E94D2
:1037E0006B1C3DC080913B0381FD0E942606C601F3
:1037F0008A259B25F12CCC24C394D12C9C012C210F
:103800003D21232B09F44DC00E94A11B95012C21C1
:103810003D21BB24B394232B09F4B12C882379F0E8
:10382000FE82EF82B8860E94D3278160782F9A8724
:1038300089874E815F8168858A850E946B1C000F95
:10384000111FF801E154FD4F80819181C826D926CE
:10385000D182C0824B2D6F2D8E2D0E94BB140E94F1
:103860006F150E94B3080E94231B9091BE02891716
:10387000F9F00E94231B8093BE022A960FB6F8949B
:10388000DEBF0FBECDBFDF91CF911F910F91FF9093
:10389000EF90DF90CF90BF90AF909F908F900C945F
:1038A0000004F394CC0CDD1CFCE0FF12A7CF84CF06
:1038B0002A960FB6F894DEBF0FBECDBFDF91CF9131
:1038C0001F910F91FF90EF90DF90CF90BF90AF903E
:1038D0009F908F900895DF92EF92FF920F931F9326
:1038E000CF93DF93CDB7DEB72B970FB6F894DEBF3B
:1038F0000FBECDBF7A878B87F42E052F162FE72EAC
:10390000D82E61110E94BF251E821D827E2DEC8261
:10391000DD824F2D502F612F8D2D9E812B960FB65E
:10392000F894DEBF0FBECDBFDF91CF911F910F91F5
:10393000FF90EF90DF900C949822FC0180819181A0
:103940000C944C25CF93C82F882309F48BC0823860
:10395000C1F40E94231B81FD85C089E30E947A2562
:103960000E94EB252FEF81EE94E0215080409040A3
:10397000E1F700C0000089E30E948125CF910C94FB
:10398000EB258338A1F40E94231B80FD6BC083E5E7
:103990000E947A250E94EB252FEF81EE94E02150C2
:1039A00080409040E1F700C0000083E5E5CF843817
:1039B000A1F40E94231B82FD55C087E40E947A2552
:1039C0000E94EB252FEF81EE94E021508040904043
:1039D000E1F700C0000087E4CFCF8CEF8C0F813A75
:1039E00090F46C2F8091E1019091E2010E941327E5
:1039F000882329F08C2F0E9481250E94EB258C2F93
:103A00000E947A25BBCF80E28C0F883048F4C770C3
:103A100081E001C0880FCA95EAF70E94A225AECFC7
:103A2000EBE5EC0FE33040F4F0E0E059FD4F80812E
:103A300090E0CF910C94481BE8E5EC0FE73150F48F
:103A4000F0E0EE0FFF1FEE5BFD4F80819181CF9183
:103A50000C945E1BCD3E30F08C2F0E94C507CF9199
:103A60000C949808CF910895882309F452C08238A5
:103A700071F40E94231B81FF4CC089E30E947A25C8
:103A80000E94EB2589E30E9481250C94EB25833865
:103A900059F40E94231B80FF3CC083E50E947A25D5
:103AA0000E94EB2583E5EFCF843859F40E94231B55
:103AB00082FF2FC087E40E947A250E94EB2587E4CD
:103AC000E2CF9CEF980F913AF0F290E2980F983085
:103AD00050F4877091E001C0990F8A95EAF7892F19
:103AE0000E94A825D2CF9BE5980F933020F490E058
:103AF00080E00C94481B98E5980F973120F490E0F3
:103B000080E00C945E1B8D3E20F00E941F080C94F8
:103B1000980808951F93CF93DF93182FEB010E940D
:103B2000A21C209731F4812FDF91CF911F910C942B
:103B3000341D8FE99FE00197F1F700C00000219745
:103B4000F0CF70E060E0893311F460E570E00C9430
:103B50008A1D882321F00E94A2250C94EB2508954C
:103B6000882321F00E94A8250C94EB250895BF928C
:103B7000CF92DF92EF92FF920F931F93CF93DF9339
:103B80006C01D62FC72FFC011281058102950F70A1
:103B90000E949825E82E8823A1F0E12E112389F0B8
:103BA0008C2F807F803429F080E28D0FE12C8830CB
:103BB00040F082E00E9436260E94982591E0E82E8F
:103BC000E926BC2EB2949FE0B922EB2DF0E0E2533F
:103BD000FF4C0C948F2F0C2F0F70C07F11F00295AB
:103BE000007F1123A9F0002359F080E28D0F883067
:103BF00010F0D11109C0802F0E94A2250E94EB2550
:103C00008D2F0E94A21C14C0802F0E94B225F6CFD7
:103C10008D2F0E94341D002359F080E28D0F8830D3
:103C200010F0D1112CC0802F0E94A8250E94EB25F6
:103C30002B2D2850330B2430310520F40E94231BF8
:103C40000E940004EE2009F49EC10E94942580FD8C
:103C50009AC1F60112820E948E250E941A24C60182
:103C60000E94E41F0E948E25DF91CF911F910F913A
:103C7000FF90EF90DF90CF90BF900C943B24802F6B
:103C80000E94B825D3CFFC2FFF70FF2EC07FC0321B
:103C900019F0F29480EFF822DD2369F0D13049F178
:103CA000112391F1002351F1F601858180FFA8CF06
:103CB0008F70858323C0112381F0011106C00E94FB
:103CC000D2258F290E94A91DB3CF0130C1F70E94D0
:103CD000D2258F290E94D825ABCF011106C00E94A2
:103CE000E1258F2D0E94B01DA3CF013009F4A0CF94
:103CF000F6CF112329F0063008F09ACF8F2DE2CFAE
:103D0000053008F095CFEDCF002359F3D93349F4AE
:103D1000FFEF27EE33E0F15020403040E1F700C0E4
:103D200000008D2F0E94341D83CF8C2F86958695A1
:103D3000837069F0813009F07BCF8D2F9C2F9370B9
:103D4000111102C090E080E00E945E1B71CF8D2FA8
:103D50009C2F9370111102C090E080E00E94481BDC
:103D600067CF8D2F112329F00E94C5070E94980864
:103D70005FCF0E941F08FACF8C2F837009F041C0DB
:103D8000111156CF4D2F429546954770440F440F61
:103D90000D2F0F7010E030E020E0042E04C0000F63
:103DA000111F221F331F0A94D2F760E070E0CB018D
:103DB000D4FF0FC06FE070E080E090E004C0660FB9
:103DC000771F881F991F4A95D2F760957095809547
:103DD0009095C695C695C370602B712B822B932B43
:103DE000C23049F058F4C13019F00E94CE2320CFE0
:103DF0000E94BC231DCF0E94E0231ACF0E94BA2349
:103E000017CF8695112311F08C2F8170882309F428
:103E10000FCF4D2F429546954770440F440F0D2FFD
:103E20000F7010E030E020E0042E04C0000F111FDE
:103E3000221F331F0A94D2F760E070E0CB01D4FF59
:103E40000FC06FE070E080E090E004C0660F771F65
:103E5000881F991F4A95D2F7609570958095909527
:103E6000C695C695C370602B712B822B932BC230E5
:103E700049F058F4C13019F00E949124D9CE0E9423
:103E80007F24D6CE0E94A324D3CE0E94F423D0CE8A
:103E9000CF70112329F08C2F0E941A248D2F12CF5E
:103EA0008D2F0E94B01D8C2F0E943B24C1CED23F8B
:103EB00089F160F4D03FC9F0D13F29F1112309F411
:103EC00042C001119DCE8C2F8F7121C0D33F39F19B
:103ED000D43FA1F7112369F1CF718C2F0E941A24CE
:103EE00063E08C2F0E942126A3CE112341F00530E0
:103EF00008F09ECE8C2F8F710E945E2499CE0630E2
:103F000008F096CEF7CF8C2F8F71112369F20E94A3
:103F10001A248ECE8C2F8F711123C9F3C5CF112394
:103F200029F08C2F8F710E94052482CE0E940024DC
:103F30007FCE81E00E943626023008F479CE82E0FE
:103F40000E94362675CE002359F0D93309F0E9CE08
:103F50008FEF97EEE3E081509040E040E1F7DFCE55
:103F60008C2F8F71A1CF4C2F4F706D2FC6010E94E7
:103F700008040E9432235CCE4C2F4F706D2FC60177
:103F80000E940B0455CEDF91CF911F910F91FF90AE
:103F9000EF90DF90CF90BF9008950F931F93CF9332
:103FA000DF93EC01688179818A810E9456258C011A
:103FB0000E94B5240E94B923B801CE01DF91CF91B0
:103FC0001F910F910C94B71DCF93DF93EC018B8160
:103FD0009C81892B29F08881998189238F3F59F40D
:103FE000DF91CF910895CE010E94CD1FCE01DF91C8
:103FF000CF910C943A03CE010E94B7038111F3CF05
:104000000E949825882361F38A81882349F382E0FE
:10401000DF91CF910C94362690E080E00E94481BFF
:1040200090E080E00E945E1B0E94BF250E94CF2589
:104030000E94EB250E94BF090C9498080E948825D5
:104040000C940C200E94AF250C941E20E92FE295C1
:10405000EF70E250EE3070F4F0E0E252FF4C0C945E
:104060008F2F803F19F020F4883E20F481E00895DE
:10407000843FE1F380E00895883EC0F3813FD1F7AB
:10408000F5CF93FB882780F908950E944C250C9466
:104090002620CF93DF9300D000D00F92CDB7DEB7AC
:1040A0000F900F900F900F900F90DF91CF91089588
:1040B000CF93DF9300D000D000D0CDB7DEB72696E7
:1040C0000FB6F894DEBF0FBECDBFDF91CF9108953C
:1040D0001F93CF93DF93C091D00216E08091D1025D
:1040E0008C1304C0DF91CF911F910895D0E01C9FE5
:1040F000F0011D9FF00D1124EE52FD4F40815181C2
:1041000062817381848195810E9458202196C770B5
:10411000E5CF409102035091030360910403709135
:10412000050380910603909107030C9458201F9378
:10413000CF93DF9380910703807FA9F480910403DC
:10414000882389F08091D002C091D102609102034E
:1041500070910303A0910503B0910603D62FD723D6
:1041600016E0C81304C0DF91CF911F91089590E02D
:10417000109711F0DF3F19F401968770F2CF189F66
:104180009001199F300D1124F901EE52FD4F41812C
:104190004713F2CF40814613EFCF42814111ECCF5C
:1041A000438154814A1B5B0B483C510528F78091A1
:1041B00007038F70806180930703F901E952FD4F77
:1041C00080818F708061808382E093E00E94E41F91
:1041D000DF91CF911F910C946820AF92BF92CF9244
:1041E000DF92EF92FF920F931F93CF93DF93CDB7A0
:1041F000DEB761970FB6F894DEBF0FBECDBF8C015E
:1042000085E0F801DE011D9601900D928A95E1F797
:10421000F80140815181E28082E0C82E83E0D82EEF
:1042200060910503709106036115710509F461C180
:104230009091020320910303892F82238F3F09F479
:1042400058C1A380B480F0900403F501E61BF70B7E
:10425000FF2009F4FCC080910703382F307FE83C31
:10426000F10508F0B2C0311179C0FE2C251323C02E
:10427000941321C0E1101FC08F70806180930703E9
:104280000E948920C6010E94E41F80910703F80163
:1042900085838F2D61960FB6F894DEBF0FBECDBF1C
:1042A000DF91CF911F910F91FF90EF90DF90CF9012
:1042B000BF90AF900895AB2829F0842F85238F3FBE
:1042C00009F033C180E0F82FF170DF2E80FF3CC091
:1042D0008091D0022091D10236E0821315C04D8723
:1042E0005E878D859E850E944C25292F22952F70F3
:1042F0002230F0F0243018F59F70F1F0F80195812C
:10430000907FD1F4D12C1EC090E0389FF001399FEE
:10431000F00D1124EE52FD4F6181651306C06081DE
:10432000641303C062816E110FC001968770D5CFF0
:104330009F7011F0882331F3805E883018F3C80134
:104340000E94E41FFD2CA5CFEE2009F4A2CF80919E
:104350000703816080930703F12C9BCF251306C0D0
:10436000941304C0F801EE2009F48DC04D875E87D8
:104370008D859E850E944520882319F1EE2009F144
:1043800080910703803270F0209102033091030383
:1043900038872F831986BB86AA868C87CE0107961D
:1043A0000E94E41F86E0F801A2E0B3E001900D92C4
:1043B0008A95E1F70E9497200E948920FF24F394B8
:1043C00068CFC8010E94E41FF9CF311113C07A2DC4
:1043D000B98AA88A6E2D89890E94492082E093E0DB
:1043E0000E94E41F86E0F60111928A95E9F70E9487
:1043F0008920B2CF25130FC094130DC0E1100BC05C
:10440000F8018583C8010E94E41F86E0F60111923D
:104410008A95E9F73ECF4D875E878D859E850E9400
:104420004520882371F2EE2061F2809107038032EB
:1044300008F4B8CF20910203309103033A83298313
:104440001B82BD82AC828E83CE010196A9CFE83C4F
:10445000F10508F041C0FE2CEE2009F4B2CF25137F
:104460002AC0941328C08091070380FD1BC0982F99
:10447000907FC1F0F8018583903F31F0982F907FB5
:10448000905F8F70892B8583C8010E94E41F86E0AE
:10449000F801A2E0B3E001900D928A95E1F70E9445
:1044A0008920F7CE86E0F801A2E0B3E001900D92FA
:1044B0008A95E1F7EECE4D875E878D859E850E94B9
:1044C000452081116FCF809107038160809307039E
:1044D000C8010E94E41FDDCE7A2DB98AA88A6E2D0C
:1044E00089890E94492086E0F60111928A95E9F7B0
:1044F000D6CFEE2009F465CF4D875E878D859E85EA
:104500000E944520F82E882309F45BCF86E0F8014D
:10451000A2E0B3E001900D928A95E1F782E093E08A
:104520000E949D1C0E949720BACF81E08E25CBCEA1
:104530001F93CF93DF93CDB7DEB72C970FB6F894C8
:10454000DEBF0FBECDBF4F83588769877A878B87C1
:104550009C87CE0107960E94ED20882369F08A850A
:104560009B85892B39F04F815885842F85238F3F78
:1045700009F071C016E05FC086E0FE013796DE01EB
:10458000119601900D928A95E1F78A859B85892B7A
:1045900089F38F81988589238F3F61F32091D10220
:1045A00030E0C9010196877099274091D0024817E1
:1045B000190671F40E9422201092D1021092D002AA
:1045C00086E0E2E0F3E0DF011D928A95E9F7D2CFC1
:1045D00096E0929FD001939FB00D1124AE52BD4F33
:1045E000FE01319601900D929A95E1F78093D102E8
:1045F0000E946820BFCF819FC00111248E529D4F21
:104600000E94ED208823E9F0E091D0021E9FF00186
:104610001124EE52FD4F408151816281738184816A
:1046200095810E9458208091D00290E00196877079
:1046300099278093D0028091D0029091D102891362
:10464000DACF2C960FB6F894DEBF0FBECDBFDF9148
:10465000CF911F91089569857A858B859C850E94ED
:10466000582088CFEF92FF920F931F93CF93DF9341
:104670008C01892B81F0F12CEE24E394E801219642
:10468000F8018491843770F4843008F05FC0813081
:10469000B1F08230A1F1DF91CF911F910F91FF9086
:1046A000EF900895853709F44CC008F43DC09CE7AD
:1046B000980F903780F78F770E94341D49C00E5FA6
:1046C0001F4FFE01849190E2980F983060F487703C
:1046D000FE2D01C0FF0F8A95EAF78F2F0E94C22599
:1046E0000E94EB2502C00E94A21C8F2D815030F247
:1046F000EFE9FFE03197F1F700C00000F7CF0E5F60
:104700001F4FFE01849190E2980F983050F487700B
:10471000FE2D01C0FF0F8A95EAF78F2F0E94C82552
:10472000DFCF0E94341DE1CF0E5F1F4FFE01C49109
:10473000C150D8F28FE99FE00197F1F700C0000067
:10474000F7CF0E5F1F4FFE01F490CFCF0E94A21C47
:104750008E01CBCF08950C94AA230E94AB236093C3
:104760002A0370932B0380932C0390932D030C94B6
:104770000C2008950C94AD230F931F9300912A03EE
:1047800010912B0320912C0330912D03602B712B62
:10479000822B932B1F910F910C94AD230F931F939A
:1047A00000912A0310912B0320912C0330912D03AB
:1047B00060237123822393231F910F910C94AD23C7
:1047C0000F931F9300912A0310912B0320912C0328
:1047D00030912D0360277127822793271F910F9116
:1047E0000C94AD230C94ED020E94F22360932603F7
:1047F0007093270380932803909329030C940C2033
:1048000060E070E0CB010C94F4230F931F9341E020
:1048100050E060E070E08A019B0104C0000F111FAE
:10482000221F331F8A95D2F7C901B8011F910F913A
:104830000C94F4230F931F9341E050E060E070E08C
:1048400004C0440F551F661F771F8A95D2F78091C9
:10485000260390912703A0912803B09129038A0190
:104860009B01082B192B2A2B3B2BC901B8011F9147
:104870000F910C94F4230F931F9341E050E060E0FC
:1048800070E004C0440F551F661F771F8A95D2F74A
:10489000CB01BA01609570958095909500912603A3
:1048A000109127032091280330912903602371235D
:1048B000822393231F910F910C94F4230F931F9342
:1048C00041E050E060E070E004C0440F551F661FF7
:1048D000771F8A95D2F78091260390912703A091A4
:1048E0002803B09129038A019B01082719272A2749
:1048F0003B27C901B8011F910F910C94F4230F932A
:104900001F930091260310912703209128033091D3
:104910002903602B712B822B932B1F910F910C94E9
:10492000F4230F931F9300912603109127032091E6
:1049300028033091290360237123822393231F913D
:104940000F910C94F4230F931F9300912603109161
:10495000270320912803309129036027712782279C
:1049600093271F910F910C94F42308952CE0929FAC
:10497000800D1124982F977041E001C0440F9A9543
:10498000EAF786958695869595E0899FF001112432
:10499000E85FFC4F90E080E070E05191DF011197FB
:1049A0009B01082E02C0369527950A94E2F72170E4
:1049B00021952527242325272C93019685309105C1
:1049C00061F708952CE0929F800D1124982F977025
:1049D00086958695869525E0829FF0011124E85FF3
:1049E000FC4F50E040E080E0219130E0092E02C011
:1049F000369527950A94E2F721703327042E01C0DB
:104A0000220F0A94EAF7822B4F5F5F4F4530510522
:104A100059F70895BF92CF92DF92EF92FF920F93D2
:104A20001F93CF93DF938C01C0902603D090270370
:104A3000E0902803F090290380912A0390912B03A2
:104A4000A0912C03B0912D03C82AD92AEA2AFB2A67
:104A5000CFE1D0E0BC2ED701C6010C2E04C0B69524
:104A6000A795979587950A94D2F780FD0EC0219758
:104A700088F7B12C8B2DDF91CF911F910F91FF9073
:104A8000EF90DF90CF90BF900895B8018C2F0E94D7
:104A90002804019761F3EECFCF93DF93EC010E94DE
:104AA0000A25BE01DF91CF910C9428041F93CF9368
:104AB000DF93EB019091CF02992331F0CB01DF918D
:104AC000CF911F910C944C25882379F0CB010E9443
:104AD0000A25182F682FCE010E94B624BE01812F0F
:104AE000DF91CF911F910C942804CB010E94E22406
:104AF000182FF4CF682F8091E1019091E2010C947E
:104B00004927682F8091E1019091E2010C944B2795
:104B10008091E1019091E2010C944D2780912E0348
:104B2000859585958595089580912E0387700895C4
:104B300090912E03977081E009F480E008958091B0
:104B40003A03089590913A03892B80933A0308958C
:104B5000809590913A03982390933A030895109288
:104B60003A03089590913903892B8093390308956E
:104B7000809590913903982390933903089510926A
:104B80003903089590913803892B80933803089551
:104B9000809590913803982390933803089510924C
:104BA0003803089580912F03089508950C94D52516
:104BB00090912F03981721F080932F030C94D62502
:104BC000089580912F03882329F010922F0380E00D
:104BD0000C94D6250895E091E101F091E2018091D5
:104BE0003A038083E091E101F091E20180819091AC
:104BF0003903892B8083E091E101F091E20180810A
:104C000090913803892B808390912F03992381F011
:104C1000E091E101F091E2018081892B8083809114
:104C2000E1019091E2010E94012781110E94E1259A
:104C30008091E1019091E2010C942F1B08950C9456
:104C40001E2698E0899F90011124622B60932E0309
:104C50000E941A2480912E038595859585950C9444
:104C60001F2610922E0380E00C941F2690912E0395
:104C70008095892380932E03282F277071F4282F85
:104C8000082E000C330B9217130639F08595859585
:104C900085950E943B240C943126089580E0089568
:104CA0006FEF7FEF90E080E00C94683090E080E060
:104CB0000E94343021E08B3E9E4F09F020E0822F8D
:104CC000089582E090E00C942C3083E090E00C9406
:104CD0002C30CF9384E090E00E942C30C82F81E2EA
:104CE00090E00E942C30982F8C2FCF910895CF9375
:104CF000C92F682F84E090E00E944A306C2F81E237
:104D000090E0CF910C944A30AB01BC018FE090E071
:104D10000C945C30AB01BC0183E190E00C945C30FE
:104D200060E070E0CB010C948A2660E070E0CB017B
:104D30000E9484260C9490266BEE7EEF90E080E03B
:104D40000E94683060E082E090E00E944A3060E0BB
:104D500083E090E00E944A3010922A0310922B03C5
:104D600010922C0310922D0360E084E090E00E94EA
:104D70004A3060E081E290E00E944A3060E085E0E5
:104D800090E00E944A3060E086E090E00E944A3065
:104D90006FEF87E090E00E944A3040E050E0BA01B7
:104DA00088E090E00E945C3060E08DE090E00E943E
:104DB0004A3040E050E0BA0188E190E00E945C3067
:104DC00060E087E190E00E944A3040E050E0BA01A4
:104DD0008CE190E00E945C3060E080E290E00E9414
:104DE0004A3040E050E0BA0188E190E00E945C3037
:104DF0000C9495260C949C26682F8EE090E00C94E1
:104E00004A309C012E5F3F4FAC01485F5F4F80E00E
:104E10002417350709F40895F90191919F01992309
:104E2000B9F38F5FF5CF662349F0FC0132960896FF
:104E30002191261729F0E817F907D1F780E00895A6
:104E400081E008959C01FC0132969FEF80E0419142
:104E5000461751F09F3F19F4411101C0982F8F5F01
:104E60008630A9F79F3F09F40895290F311D97FD5A
:104E70003A95F90162830895FC01329608962191D2
:104E8000261303C0DF0111971C92E817F907B9F741
:104E900008950C9422270C943C27029626E0FC01EE
:104EA00011922A95E9F708950895089580913204A2
:104EB000843049F10E94E30280E00E9400041092D5
:104EC0003C0388E190E020E40FB6F894A895809325
:104ED00060000FBE2093600083B7817F846083BF32
:104EE00083B7816083BF7894889583B78E7F83BFB3
:104EF0000FB6F894A8958091600088618093600057
:104F0000109260000FBE08950895CF930E94542719
:104F10000E9484060E948427C0E08C2F0E941D06F8
:104F2000892B31F4CF5FC430C1F780E0CF91089571
:104F300081E0FCCF08950E9422200E94231B0E9442
:104F400000040C94E8021F921FB61F9211248F9345
:104F50009F93AF93BF9380913C03811113C08091C5
:104F6000280490912904A0912A04B0912B04419621
:104F7000A11DB11D8093280490932904A0932A04B5
:104F8000B0932B04BF91AF919F918F911F901FBE43
:104F90001F90189582E084BD93E095BD9AEF97BD70
:104FA00080936E0008952FB7F89480912804909113
:104FB0002904A0912A04B0912B042FBF08952FB784
:104FC000F894609128047091290480912A049091AA
:104FD0002B042FBF08959C014FB7F89480912804AB
:104FE00090912904A0912A04B0912B044FBF821BF9
:104FF000930B0895CF92DF92EF92FF922FB7F89420
:10500000C0902804D0902904E0902A04F0902B044A
:105010002FBFA7019601261B370B480B590BCA015E
:10502000B901FF90EF90DF90CF90089578941F9290
:105030001FB61F9211248F939F93AF93BF938091BC
:10504000280490912904A0912A04B0912B04019680
:10505000A11DB11D8093280490932904A0932A04D4
:10506000B0932B04BF91AF919F918F911F901FBE62
:105070001F90189581E08093E00080E28093D80033
:105080001092C9008FE19EE40197F1F700C0000083
:1050900087E090EBDC0180933B0490933C04A09369
:1050A0003D04B0933E0488E19CE00FB6F894A895C7
:1050B000809360000FBE90936000FFCF90937502C5
:1050C0008093740208950C9450260E9484068FE306
:1050D0009CE90197F1F700C000000E94840680E07F
:1050E0000E941D0680FF04C00E9463280C943A2889
:1050F00008950E945626811102C00E94FA260E943D
:10510000612680933B030E94692690932D0480932F
:105110002C040E946526682F70E090E080E00E94D9
:10512000BA23609126037091270380912803909100
:1051300029030C94F223809145030895CF93DF93C4
:1051400000D00F92CDB7DEB790913204943019F5AC
:1051500089837B836A8382E08093E9008FEF90915B
:10516000E800815095FD06C095ED9A95F1F7000095
:105170008111F5CF8091E80085FF0DC050E040E03F
:1051800063E070E0CE0101960E94B72A8091E800AA
:105190008E778093E8000F900F900F90DF91CF9162
:1051A0000895BC0184E00C949E28BC0183E00C941B
:1051B0009E289C0182E08093E9009FEF8091E800A7
:1051C000915085FD06C085ED8A95F1F7000091119B
:1051D000F5CF8091E80085FF0CC050E040E066E02C
:1051E00070E0C9010E94B72A8091E8008E77809311
:1051F000E8000895CF93DF93EC0181E08093E9000C
:105200008FEF9091E800815095FD06C095ED9A953D
:10521000F1F700008111F5CF8091E80085FF14C0FF
:1052200050E040E068E070E0CE010E94B72A809133
:10523000E8008E778093E80088E0FE01ADE3B3E0FC
:1052400001900D928A95E1F7DF91CF9108958091B9
:105250003104811109C00E94472C0E94A42C809126
:10526000E20084608093E200089510923104089572
:1052700008950895089542E061EC81E00E94C32BF7
:1052800042E261EC82E00C94C32B809134048330C1
:1052900009F45FC030F48130C1F1823009F49BC061
:1052A00008958A3009F487C08B3009F46DC08930C5
:1052B00009F04EC080913304813209F049C08091D9
:1052C000370490913804029708F042C08091E800BA
:1052D000877F8093E8008091E80082FF35C090913D
:1052E000F3008091F200029729F48091F1008B7F06
:1052F000813021F48091F100809345038091E80092
:105300008B778093E8000C94F72B80913304813ADB
:10531000F9F48091E800877F8093E800809137045A
:1053200090913804892B61F468E08DE393E070E09C
:105330000E94062B8091E8008B778093E800089507
:1053400060E090E080E0F3CF809132048111C3CF20
:10535000089580913304813AD9F780913704909170
:105360003804892BA9F78091E800877F8093E800B3
:105370008091E80080FFFCCF8091ED018093F100E7
:105380008091E8008E77BDCF80913304813201F7A0
:105390008091370490913804892BD1F68091E800F0
:1053A000877F8093E8000E94F72B809135048093DB
:1053B000ED010C94222080913304813249F68091D2
:1053C000E800877F8093E8000E94F72B80913604E5
:1053D00080934603089580913304813A09F0B8CF51
:1053E0008091E800877F8093E8008091E80080FF4B
:1053F000FCCF80914603C2CF84B7877F84BF0FB6AE
:10540000F894A89580916000886180936000109264
:1054100060000FBE80E890E00FB6F89480936100C2
:10542000909361000FBE0E94951B0E94472C0E9422
:10543000A42C8091E20084608093E20078940E9422
:105440002D2F0E94A51B83EE91E00E941E1B8091D0
:1054500032048530A9F00E94AD1B0E94A31B0E945C
:10546000A41BF5CF0E94562780913004882341F079
:105470000E948527882321F00E94A12A0E942220D1
:1054800080913204853071F30E949B27E4CF0C9405
:10549000492A292F33272330310519F168F42130A7
:1054A000310509F444C02230310509F445C090E0CB
:1054B00080E030E020E025C02132310549F1223280
:1054C0003105A9F780E490E024EF34E0611571051F
:1054D000C1F08BE790E029E734E06130710589F095
:1054E000E6CF99278130910581F0009729F0029746
:1054F000F1F6ECEEF3E002C0E8E2F4E0849190E033
:105500009F01FA01318320830895E0E1F4E0F6CFB2
:1055100089E090E02EE334E06115710591F389E0B4
:1055200090E027E534E06130710559F3C0CF82E1A6
:1055300090E027E634E0E5CF8BE390E02CE234E026
:10554000E0CF80E189BD82E189BD09B400FEFDCFD5
:105550008091D8008F7D8093D8008091E000826098
:105560008093E0008091E00081FDFCCF0895AF9230
:10557000BF92CF92DF92FF920F931F93CF93DF934F
:105580006C01EB018A010E94162CF82E811123C0B8
:105590000115110539F0F80180819181C81BD90BE3
:1055A000C80ED91EB12CA12C2097A9F08091E8003B
:1055B00085FD22C08091E8008E778093E800011578
:1055C0001105A1F0F80180819181A80EB91EB18268
:1055D000A08285E0F82E8F2DDF91CF911F910F9142
:1055E000FF90DF90CF90BF90AF9008950E94162C4F
:1055F0008823D1F2F82EEFCFF60181916F018093CD
:10560000F1002197FFEFAF1ABF0ACECFFC018091C6
:10561000390490913A0486179707A0F06115710537
:1056200029F49091E8009E779093E80090E061154E
:10563000710551F4911108C08091E80082FF34C0D7
:1056400080E00895BC01F2CF809132048823C1F13B
:105650008530C1F18091E80083FD30C08091E80081
:1056600082FDEACF8091E80080FFE1CF8091F300D6
:105670002091F200382F6115710519F0283031059D
:1056800058F091E02830310509F090E02091E800D1
:105690002E772093E800CBCF81918093F100615069
:1056A00071092F5F3F4FE7CF80913204882341F08B
:1056B000853041F08091E80083FFBECF81E00895FE
:1056C00082E0089583E00895FC018091390490916F
:1056D0003A0486179707A0F06115710529F48091A7
:1056E000E8008E778093E80090E06115710551F431
:1056F000911108C08091E80082FF35C080E00895D4
:10570000BC01F2CF809132048823C9F18530C9F100
:105710008091E80083FD31C08091E80082FDEACFEE
:105720008091E80080FFE1CF8091F3002091F200AA
:10573000382F6115710519F02830310558F091E0C6
:105740002830310509F090E08091E8008E77809351
:10575000E800CBCF84918093F100319661507109BC
:105760002F5F3F4FE6CF80913204882341F0853090
:1057700041F08091E80083FFBDCF81E0089582E091
:10578000089583E00895982F973028F08F708093C4
:10579000E90081E008959093E900242F762F50E0EE
:1057A000981731F07091EC002091ED005091F000CD
:1057B00021FD02C09F5FE8CF3091EB003E7F309328
:1057C000EB003091ED003D7F3093ED003091EB0028
:1057D00031603093EB007093EC002093ED00509318
:1057E000F0002091EE0027FDE5CF80E00895809144
:1057F000330487FF13C08091E80082FF06C08091C8
:10580000E8008B778093E80004C080913204811116
:10581000F2CF0895809132048823D9F38091E80073
:1058200080FFF8CF8091E8008E77ECCF2091E400E4
:105830003091E50095E6A9012091EC00822F81705E
:1058400020FF06C08091E80080FF06C080E0089538
:105850002091E80022FD1AC080913204882389F04B
:10586000853089F08091EB0085FD0FC02091E40028
:105870003091E50042175307F9F29150E1F684E0C8
:10588000089582E0089583E0089581E008950E94DC
:10589000B52C0E94BD2CE0EEF0E080818160808319
:1058A000E8EDF0E080818F77808319BCA7EDB0E050
:1058B0008C918E7F8C9380818F7E808310923104B7
:1058C00008950F931F93CF93DF930E94B52C0E94EE
:1058D000BD2CC8EDD0E088818F778883888180686F
:1058E000888388818F7D888319BC1092320410923E
:1058F0002E041092300410922F0400EE10E0F801F4
:1059000080818B7F808388818160888342E060E032
:1059100080E00E94C32BE1EEF0E080818E7F8083E7
:10592000E2EEF0E080818160808380818860808306
:10593000F80180818E7F8083888180618883DF91F8
:10594000CF911F910F910895E8EDF0E080818F7E57
:105950008083E7EDF0E080818160808384E082BF16
:1059600081E0809331040C94612CE8EDF0E08081BB
:105970008E7F80831092E20008951092DA001092D8
:10598000E10008951F920F920FB60F9211242F93EA
:105990003F934F935F936F937F938F939F93AF93B7
:1059A000BF93EF93FF938091E10082FF0BC0809142
:1059B000E20082FF07C08091E1008B7F8093E100CD
:1059C0000E942C2F8091DA0080FF19C08091D800AE
:1059D00080FF15C08091DA008E7F8093DA0080917D
:1059E000D90080FF96C080E189BD82E189BD09B4FC
:1059F00000FEFDCF81E0809332040E942729809130
:105A0000E10080FF19C08091E20080FF15C0809105
:105A1000E2008E7F8093E2008091E20080618093BB
:105A2000E2008091D80080628093D80019BC85E0A4
:105A3000809332040E9439298091E10084FF2BC0B9
:105A40008091E20084FF27C080E189BD82E189BDA9
:105A500089B5982F917080FFFBCF8091D8008F7D02
:105A60008093D8008091E1008F7E8093E100809147
:105A7000E2008F7E8093E2008091E200816080935B
:105A8000E20080912E04882309F449C084E08093C9
:105A900032040E943A298091E10083FF29C080915D
:105AA000E20083FF25C08091E100877F8093E100C1
:105AB00082E08093320410922E048091E1008E7F68
:105AC0008093E1008091E2008E7F8093E2008091DC
:105AD000E20080618093E20042E060E080E00E94AA
