:100000000C94D1020C9418030C9418030C9418034C
:100010000C9418030C9418030C9418030C941803F4
:100020000C9418030C9418030C942E230C940224A3
:100030000C94F31C0C9418030C9418030C941803E0
:100040000C9418030C9418030C9418030C941803C4
:100050000C9418030C944A1D0C9418030C94180368
:100060000C9418030C9418030C9418030C941803A4
:100070000C9418030C9418030C9418030C94180394
:100080000C9418030C9418030C9418030C94180384
:100090000C9418030C9418030C9418030C94180374
:1000A0000C9418030C9418030C9418036572676F72
:1000B000646F6E652F4163686F6F626572742E6343
:1000C0006F6C656D6163204020302E31322E3436E6
:1000D0002D38392D673438306262322D646972747C
:1000E00079002E001E001F00200021002200500079
:1000F0004F00230024002500260027002D004C007F
:1001000014001A00090013000500015303530D00E9
:100110000F0018001C00334231002A0004001500B3
:10012000160017000A00000000001000110008006F
:100130000C0012423468E1001D611B610664070077
:100140001900006F00670E000B00360037003861A1
:10015000E50035413400E10450004F00000000008C
:1001600000000000520051002F0030000158000034
:100170004D002A002C004A006564E300E20029617A
:100180004B0028002B004E0000002B5D3A003B0086
:100190003C003D003E00010001003F0040004100E6
:1001A00042004300440001001E021F022F023002E1
:1001B0003102010001005200240025002600250222
:1001C000450001002002210226022702350000001E
:1001D000000051002100220023002E020100010036
:1001E000220223022F003000350201000100240208
:1001F0001E001F002000310001002A5D01000100E7
:1002000001000100000000000000000001003700B4
:1002100027002E00010000000100CA5CCB5C010039
:10022000C45C0100C35C2C5D0100C65CC75C0100BE
:10023000000001003A003B003C003D003E00010090
:1002400001000100010001000100010001000100A6
:1002500035003800310024020100010001000100D6
:100260004600520001000100010001002E002F0293
:100270002F00260201000000000001005000510084
:100280004F000100AE000100E00030023000270204
:1002900001000100010001000100AC00AB00010001
:1002A0000100010001000100010001000000000048
:1002B00000000000A900AA00A80001000100000041
:1002C0000100010001000100010001000100010026
:1002D0000100B6000100010000002E001E001F00FA
:1002E00020002100220050004F00230024002500A0
:1002F000260027002D002B0014001A00080015000E
:100300001700015301001C0018000C00120013001C
:1003100031002A0004001600070009000A0000004E
:1003200000000B000D000E000F0033423468E100A6
:100330001D611B61066419000500006F0067110054
:100340001000360037003861E50035413400E10423
:1003500050004F000000000000000000520051005B
:100360002F003000015800004D002A002C004A00E8
:100370006564E300E20029614B0028002B004E0079
:10038000000000000000000000002A2B28000000F0
:100390000000000000000000000000000029000034
:1003A00000002C1E3420212224342627252E362D11
:1003B0003738271E1F202122232425263333362EAB
:1003C00037381F0405060708090A0B0C0D0E0F101D
:1003D0001112131415161718191A1B1C1D2F313062
:1003E000232D350405060708090A0B0C0D0E0F1006
:1003F0001112131415161718191A1B1C1D2F313042
:10040000354C00000000000000000000000000006B
:1004100000000000000000000000000000000000DC
:100420000000000000007E0F00D4FFFFFFC70000A7
:10043000007812034500720067006F0044006F00EF
:100440006E006500000012034B002E0054002E00C9
:1004500045002E0043002E00000004030904090299
:100460003B00020100A0FA090400000103010100A1
:100470000921110100012240000705810308000A3B
:1004800009040100010300000009211101000122FB
:10049000B6000705820320000A12011001000000C7
:1004A000080912282301000102000105010902A127
:1004B0000185020901A10005091901290815002576
:1004C0000195087501810205010930093115812561
:1004D0007F95027508810609381581257F9501757C
:1004E000088106050C0A38021581257F95017508DB
:1004F0008106C0C005010980A101850319012AB741
:1005000000150126B700950175108100C0050C0982
:1005100001A101850419012AA002150126A0029556
:100520000175108100C005010906A10185050507B7
:1005300019E029E7150025019508750181020507D5
:10054000190029EF1500250195F0750181020508B4
:100550001901290595057501910295017503910110
:10056000C005010906A101050719E029E7150025C5
:10057000019508750181029501750881010507192A
:100580000029FF150026FF00950675088100050863
:1005900019012905950575019102950175039101D0
:1005A000C00011241FBECFEFDAE0DEBFCDBF04B61E
:1005B00003FE27C08091E2029091E302A091E40241
:1005C000B091E5028730904BA740B04BD1F4109228
:1005D000E2021092E3021092E4021092E50214BECD
:1005E00084B7877F84BF0FB6F894A8958091600088
:1005F000886180936000109260000FBEE0E0F8E335
:10060000099511E0A0E0B1E0ECE9FCE402C005903E
:100610000D92A637B107D9F722E0A6E7B1E001C0F5
:100620001D92A23EB207E1F70E9468200C94242696
:100630000C9400001092B9008AE08093B8000895ED
:1006400094EA9093BC009091BC0097FFFCCF9091EE
:10065000B900987F983011F0903199F48093BB00E5
:1006600084E88093BC008091BC0087FFFCCF909110
:10067000B900987F983119F081E0903409F480E056
:10068000089581E008950C94200384E98093BC00D0
:100690008091BC0084FDFCCF08958093BB0084E86A
:1006A0008093BC008091BC0087FFFCCF9091B90083
:1006B000987F81E0983209F480E0089584E880937F
:1006C000BC008091BC0087FFFCCF8091BB000895E7
:1006D00080B38F7080BB81B38F7081BB84B1897F01
:1006E00084B985B1897F85B90C94DD046E98769ABA
:1006F0008AB183768AB98BB18C698BB93E98469A58
:1007000024982C9A0C9412050C9401060E946803FC
:100710000E947603ECECF1E088E791E011921192EF
:10072000DC012EE01D922150E9F70E9621E0E83D14
:10073000F207A1F70C94DA060E9468030E94760380
:10074000ECECF1E011821082138212821582148285
:1007500017821682118610861386128608959EE0EF
:10076000899FF0011124E858FE4F30E020E050E06E
:1007700040E061E070E09191992359F0DF01119719
:1007800091509C932F5F3F4F2E303105A1F7CA0146
:100790000895CB01022E02C0880F991F0A94E2F738
:1007A000482B592BEFCFCF932EE0629FB00111243D
:1007B00030E020E0A1E0B0E0C5E0AD01022E02C0D3
:1007C000440F551F0A94E2F748235923452B31F073
:1007D000FB01E20FF31FE858FE4FC0832F5F3F4F2E
:1007E0002E30310551F7CF9108954F925F927F924D
:1007F0008F929F92AF92BF92CF92DF92EF92FF9231
:100800000F931F93CF93DF930E94F8040CEC11E039
:10081000C0E0D1E0C33009F47FC008F06FC0C13040
:1008200009F474C0C23009F474C0849A8C988C2F77
:100830000E94E10480EA8A95F1F78C2F0E94AF03B1
:100840007C010E9443054B996DC0A0E4CA2ED12CB7
:100850004A996BC0A0E2B0E04C996AC0F0E14F2E1B
:10086000512C369968C068E070E04F9967C044E049
:1008700050E0669966C022E030E073B0F801A190C4
:10088000B1908F017294EFE07E227D2670FA882469
:1008900080F8912C882999298C299D298A2B9B2BBA
:1008A00084299529862B972B842B952B822B932B90
:1008B0008A259B258E219F21A826B9266C2F0E9470
:1008C000D303F8013297B182A0820E946803CF5F00
:1008D000C63009F09FCF0E94E40681E0DF91CF91FE
:1008E0001F910F91FF90EF90DF90CF90BF90AF904E
:1008F0009F908F907F905F904F900895C43079F0D3
:10090000C53009F092CF229A2A9891CF859A8D9876
:100910008ECF869A8E988BCF879A8F9888CF219A80
:10092000299885CFD12CC12C93CFB0E0A0E094CFF3
:10093000512C412C96CF70E060E097CF50E040E022
:1009400098CF30E020E099CFE82FF0E0EE0FFF1FC6
:10095000E453FE4F8081918108950895853008F019
:100960008F5F2091D80130E0A90102C055954795CD
:100970008A95E2F7CA01817008951F93CF93DF93A0
:10098000182FD62FC091D901CC2391F080E40E947A
:100990002003C82F81110AC0812F0E944D03C82F48
:1009A000811104C08D2F0E944D03C82F0E94450362
:1009B0008C2FDF91CF911F9108956FEF81E00C9400
:1009C000BD048F5F61E070E001C0660F8A95EAF7B1
:1009D000609581E00C94BD046FEF82E00E94BD043D
:1009E0006FEF8CE00E94BD046FEF81E00C94BD04BA
:1009F00080E40E94200381110DC00E944503809174
:100A0000D90181110EC081E08093D9010E94EC04CC
:100A10000C94FD148091D901813019F41092D90100
:100A2000F7CF08950E941A030C94F8040F931F93B4
:100A3000CF93DF93D82F8B01C091D901CC23C1F084
:100A400080E40E942003C82F811110C08D2F0E94C6
:100A50004D03C82F81110AC081E40E944303C82FAF
:100A6000811104C00E945E03F80180830E94450347
:100A70008C2FDF91CF911F910F91089568ED71E058
:100A800082E10C9416058F929F92AF92BF92FF92D3
:100A90000F931F93CF93DF930E943E05CDE0D0E0EC
:100AA00010E000E08DE0F82E812C912C540183940D
:100AB0008F2D8C1B0E94AE04882361F0D501C401E8
:100AC0000C2E04C0880F991FAA1FBB1F0A94D2F7CF
:100AD000082B192B219760F7C801DF91CF911F9147
:100AE0000F91FF90BF90AF909F908F9008952598A1
:100AF0002D980895259A2D9A089526982E98089550
:100B0000269A2E9A089523982B980895239A2B9A23
:100B100008952098289A08950E9477050E947D05DF
:100B20000E9483050C94890584B1886684B985B1D7
:100B3000877985B9209A289A559A5D9A08950E94D6
:100B40008C050E947A052FEF80E792E021508040CB
:100B50009040E1F700C000000E9480052FEF80E781
:100B600092E0215080409040E1F700C000000E94D8
:100B700086052FEF80E792E0215080409040E1F71A
:100B800000C000000E9477052FEF80E792E021501F
:100B900080409040E1F700C000000E947D052FEFEB
:100BA00080E792E0215080409040E1F700C00000D3
:100BB0000E9483050C948C050E9494050E949F0559
:100BC0000C9400068B322DE5920779F08C32EDE51E
:100BD0009E0749F08A329D4589F4FB018281882372
:100BE00071F00E94DE1B80E00895FB018281882362
:100BF00031F08CEA90E00E940808F5CF81E008957A
:100C00000895CF93609178027091790280917A0271
:100C100090917B020E941508C82F0E9489050E94AE
:100C200077050E947D050E948305C13021F0C23006
:100C300029F0CF910895CF910C947A05CF910C941F
:100C40008005CF93DF939C013A9521153F4168F5CC
:100C5000EC01CC27D170DC01AA27B270AC0144278B
:100C600054709C012227387094FF11C080E1CD2B75
:100C700009F480E0AB2B09F08062452B09F0806419
:100C8000232B09F08068FB01DF91CF91099481E06B
:100C9000CD2B09F480E0AB2B09F08260452B09F0E5
:100CA0008460232B81F38860EECFDF91CF9108958C
:100CB000CF93DF93EC01805E9109089720F069EDF6
:100CC00074E1209711F46EE772E1CE010E942106D3
:100CD0008C2FDF91CF910C947711CF93DF93EC01A0
:100CE0000E940912CE01805E9109089720F060EE03
:100CF00074E1209711F465E872E1CE01DF91CF91A4
:100D00000C942106CF93DF93EC010E945806CE018C
:100D1000DF91CF910C946D0681E008950C94E2056B
:100D200008950C9490061F93CF93DF9300D000D0CA
:100D30000F92CDB7DEB749835A836B833091080297
:100D400089819A8131111DC06623B9F02223A9F04F
:100D50000E94E719182F682F89819A810E949319A0
:100D600069817A81812F0F900F900F900F900F90D3
:100D7000DF91CF911F910C9475080E94BF19182F15
:100D8000EFCF0E94E71969817A81EDCFFC01262F10
:100D9000408151816281738184810C949306CF9349
:100DA000DF93EC0160E00E94C606BE01DF91CF91A7
:100DB0000C9491060E94301B811102C00E94DE1B20
:100DC0000E94200D0C94DC050C94840308950E946D
:100DD000FD140E94E6062FEF84E39CE02150804042
:100DE0009040E1F700C000000C946E1D0F931F931C
:100DF000CF93DF93EC0161E00E94C6068C01BE0137
:100E00000E948E06882359F1BE01C8010E94AB0DD5
:100E1000882329F1BE01C8010E94350E8823F9F00C
:100E2000BE01C8010E94870E8823C9F0BE01C80117
:100E30000E94AA0F882399F08A81882339F001152E
:100E40008CE5180751F00F3D1C4579F0CE01DF917C
:100E5000CF911F910F910C948C060E94E70680E0C1
:100E6000DF91CF911F910F9108950E94DE1BF7CF64
:100E7000DF92EF92FF920F931F93CF93DF93E82FB0
:100E8000F0E0EE57FC4FD490282F26952695269516
:100E900030E0F901EE5DFB4F0491877010E0082E01
:100EA00002C0159507950A94E2F701701127F90120
:100EB000EE5EFB4FE490F12C082E02C0F594E7940F
:100EC0000A94E2F791E0E922FF24F901EE5FFB4F7B
:100ED000C491D0E002C0D595C7958A95E2F7C1705C
:100EE000DD270115110519F081EE0E947711E1143B
:100EF000F10419F086EE0E9477118D2D0E94761272
:100F0000EF2819F086EE0E940912012B19F081EEEC
:100F10000E940912CD2B51F08CE2DF91CF911F91ED
:100F20000F91FF90EF90DF900C947612DF91CF91AC
:100F30001F910F91FF90EF90DF900895EF92FF9235
:100F40000F931F93CF93DF938C01F62E8AE0E82E48
:100F5000F8018491882309F454C0813009F04DC010
:100F6000E8012196FE018491813091F42196FE01E1
:100F700084910E9476128E010F5F1F4F8F2D81503A
:100F800038F3EFE9FFE03197F1F700C00000F7CF49
:100F9000823039F4E8012296FE0184910E94771193
:100FA000EACF833039F4E8012296FE0184910E9451
:100FB0000912E1CF8430F9F6E8012296FE0124916E
:100FC00090E080E0FE0131962053330B2A3031054A
:100FD00048F0019780F2EFE9FFE03197F1F700C0A8
:100FE0000000F7CFE89EA001E99E500D1124C90131
:100FF000840F951F2491EF01E5CF0E943807E80187
:10100000BACFDF91CF911F910F91FF90EF9008958C
:1010100060E00C949E07982F9F709A50963018F0BD
:10102000805D0C943807895AFCCFCF92DF92EF9203
:10103000FF926C01EE24FF2420E0C114D104E104EE
:10104000F10419F0C701B60120E1C72ED82EE92E10
:10105000FF24C114D104E104F10419F0285FC70191
:10106000B6016B017C0154E0F694E794D794C794E1
:101070005A95D1F7C114D104E104F10419F02C5FA1
:10108000C701B6016B017C0142E0F694E794D79466
:10109000C7944A95D1F7C114D104E104F10419F0C1
:1010A0002E5FC701B6019695879577956795672B53
:1010B000682B692B09F02F5F822FFF90EF90DF9054
:1010C000CF90089508950C94620881E008950C94DF
:1010D0006508CF93C82F0E9463088C2FCF910C9482
:1010E000670890E080E008950895972F70E02EE063
:1010F000929F600D711D1124FB0194E5899FE00D05
:10110000F11D1124EE0FFF1FEE51FF4F85919491B9
:101110000895FC01EE0FFF1FEE5CFB4F859194914B
:101120000895CF93DF930E9475080E94A609EC01F1
:10113000811520E5920708F042C0811530E493073D
:1011400008F0BDC0883E910528F5803E910508F065
:101150009DC0883A910588F4853A910508F08FC0C2
:101160008130910509F492C0009709F48FC004976B
:1011700008F08CC0D0E0C0E089C08F3B910508F436
:1011800089C0805C9109C03CD105A0F30E94890808
:10119000EC017CC08115904250F4C11581E0D80764
:1011A00008F074C0CD3ED10528F3D0656FC0C115DD
:1011B00090E3D90708F079C0CE019F70E7CF811581
:1011C00025E5920758F5811534E5930708F0A6C088
:1011D000811542E5940750F4C11581E5D80708F45C
:1011E00071C0DC2FCC27C16FD06A50C0982F969564
:1011F00096959E0123703327C115D34508F07FC013
:10120000C1E0D0E002C0CC0FDD1F2A95E2F720E25A
:10121000929FC0011124C82BD92B6FC0C11589E53D
:10122000D807A8F4C11598E5D90708F07CC0C11506
:1012300026E5D20708F09ECF8C2F0E943D0AC82FCA
:10124000D0E0DC2FCC27CC27DF71D0621FC0C115C6
:101250003AE5D30708F46CC0CE0190568115904250
:1012600008F088CF8D2F8F710E943D0A90E0982F53
:10127000882788279F719C012C2BE901E6CFC55A4E
:10128000D0E0CF5BDE4FC881D0E0D064CE01DF91EB
:10129000CF910895C85AD0E0CC0FDD1FCD5EDE4F50
:1012A0000990D881C02DD464F1CFCE019927D3FF06
:1012B00003C0EC01D86CEACFEC01D06CE7CFDF7053
:1012C000D06AE4CFCE01E4E096958795EA95E1F700
:1012D00083702C2F26952695237090E2299F9001EC
:1012E0001124382B8C2F8370C1E0D0E002C0CC0FCA
:1012F000DD1F8A95E2F7C22BD32BDC68C7CFC1E094
:10130000D0E002C0CC0FDD1F2A95E2F730E2939FB8
:10131000C0011124C82BD92BDA68B8CFD82FCC271D
:10132000C46FD06AB3CFDC2FCC27C06FD06AAECFEA
:101330008C2F8F700E943D0A34E0D695C7953A9560
:10134000E1F7CF709C2FEC01D069A0CF82389105D6
:10135000B1F1B0F48133910509F475C048F48932D4
:10136000910509F469C08A32910509F473C00895A2
:101370008533910509F459C08933910501F1089528
:10138000833E9105A9F138F4803E9105F9F0823E43
:10139000910549F10895863E9105A9F1873E910591
:1013A000C9F1843E910519F52091D40221FF1FC097
:1013B0008091D30284FD14C087EE90E008952091BF
:1013C000D3022370A1F080EE90E008952091D30223
:1013D00020FD47C03091D40230FF09C024FF44C033
:1013E00090E080E004C02091D30222FDF7CF089561
:1013F0002091D30222FD3BC03091D40230FDE3CFD7
:1014000024FFF5CFEDCF2091D30223FFF0CF24FDB1
:10141000E7CFD2CF2091D30223FD2CC03091D4024C
:1014200031FFEECF84EE90E008952091D30225FFA6
:10143000DECF89E290E008952091D30225FFD7CF37
:1014400085E390E008952091D30226FFD0CF8AE271
:1014500090E008952091D30226FFC9CF81E390E068
:10146000089589E390E0089583EE90E0089582EE78
:1014700090E0089586EE90E008959091D30292FF57
:1014800006C0282F28712830F9F4877F846093FFE5
:1014900006C0282F28712831F1F4877E84612091BD
:1014A000D40220FF06C0382F38713830D9F4877F36
:1014B000816021FF06C0282F28712831D1F4877E52
:1014C000816194FD877E0895282F24712430F9F6D8
:1014D0008B7F8860DCCF282F2471243101F78B7E2D
:1014E0008861DDCF382F3171313019F78E7F8860F8
:1014F000E0CF282F2171213121F78E7E8861E1CF45
:101500008091E20180FF12C06091040185E0689F34
:10151000B0011124759567957595679560387105CB
:10152000A8F561157105A1F1862F089581FF09C005
:101530006091040185E0689FB0011124759567955D
:10154000EDCF6091040182FD0AC08091E101882302
:10155000D1F09091030160910401891728F085E092
:10156000689FB0011124DACF869FB001112485E075
:10157000869F9001879F300D1124692F70E0C9016B
:101580000E94B425CBCF65E070E0CECF8FE7089501
:1015900081E008958091E20180FF0CC0609101011B
:1015A00070E075956795759567956115710549F1B9
:1015B000862F089581FF06C06091010170E0759546
:1015C0006795F3CF6091010182FD0BC09091E0011E
:1015D0009923A1F06091000180910101961738F0E4
:1015E000682F70E06038710500F38FE70895899FD8
:1015F000C001112470E00E94B425F4CF61E070E0D6
:10160000D7CF81E008958D3E31F40E94800A819504
:101610008093E60108958E3E19F40E94800AF8CF67
:101620008F3E31F40E94800A81958093E5010895F0
:10163000803F19F40E94800AF8CF893F29F40E9464
:10164000CA0A8093E70108958A3F21F40E94CA0ADA
:101650008195F7CF8B3F31F40E94CA0A8195809320
:10166000E80108958C3F19F40E94CA0AF8CF9FE060
:10167000980F983070F4815F990B21E030E001C041
:10168000220F8A95EAF78091E401822B8093E4018E
:1016900008958D3F31F48091E20181608093E201F1
:1016A00008958E3F21F48091E2018260F7CF8F3F51
:1016B000B9F78091E2018460F1CF4091E5018D3E60
:1016C00059F48091E60187FF0DC01092E6014111A7
:1016D0000BC01092E10108C08E3E81F48091E601BA
:1016E00018169CF3442381F08091E7019091E80162
:1016F000892B09F05AC01092E00108958F3E49F4F9
:1017000047FFF0CF1092E5018091E6018111ECCF07
:10171000E0CF803F19F41416ACF3E4CF9091E701C9
:10172000893F29F41916F4F61092E701DBCF8A3FBE
:1017300019F497FFD7CFF8CF9091E8018B3F29F4A8
:1017400097FFD0CF1092E801CDCF8C3F19F4191636
:10175000CCF3C8CF9FE0980F983090F4815F990B3D
:1017600021E030E0B90102C0660F771F8A95E2F7E9
:10177000CB0180959091E40189238093E401B2CF5D
:101780008D3F31F48091E2018E7F8093E201AACFF8
:101790008E3F21F48091E2018D7FF7CF8F3F09F0DA
:1017A000A1CF8091E2018B7FF0CF08950E94231D8D
:1017B0009C019091E5018091E601982B21F03093F6
:1017C000DF012093DE019091E7018091E801982BE1
:1017D00021F03093DD012093DC0183EE91E00C9445
:1017E0000C10EF92FF920F931F93CF93DF9300D0D3
:1017F00000D000D0CDB7DEB786E0E3EEF1E0DE0149
:10180000119601900D928A95E1F7E090E501F09034
:10181000E6010091E7011091E8011092E5011092B4
:10182000E6011092E7011092E8018E2D8F2991F0C8
:101830008091DE019091DF010E943B1DAC019091EF
:10184000E101992309F43FC0809105018417150631
:1018500008F447C0802F812B91F08091DC0190919A
:10186000DD010E943B1DAC019091E001992309F438
:1018700077C0809102018417150608F47FC080911B
:10188000E5019091E601892B9091E701892B9091D8
:10189000E801892B11F00E94D60B86E0FE013196FB
:1018A000A3EEB1E001900D928A95E1F726960FB66E
:1018B000F894DEBF0FBECDBFDF91CF911F910F9186
:1018C000FF90EF9008952091DB018AE0289F90011E
:1018D00011242417350708F0BDCF9F5F9093E101D5
:1018E00002C09F3FD1F7EE2059F00E94800A9FEF7F
:1018F0001E140CF491E0899F802D11248093E50142
:10190000FF2059F00E94800A9FEF1F140CF491E011
:10191000899F802D11248093E6013091E5013323C6
:1019200009F498CF2091E601222309F493CF45EBE7
:101930003403C0011124992359F09093E50145EB3C
:10194000240390011124332339F03093E60182CF30
:1019500081E08093E501F3CF81E08093E6017ACFC7
:101960002091DA018AE0289F90011124241735077D
:1019700008F085CF9F5F9093E00102C09F3FD1F7B1
:10198000002359F00E94CA0A9FEF10160CF491E050
:10199000899F802D11248093E701112359F00E9423
:1019A000CA0A9FEF11160CF491E0899F802D112433
:1019B0008093E8013091E701332309F460CF20914F
:1019C000E801222309F45BCF45EB3403C001112465
:1019D000992359F09093E70145EB240390011124DA
:1019E000332339F03093E8014ACF81E08093E70157
:1019F000F3CF81E08093E80142CF86E0E3EEF1E0AF
:101A0000DF011D928A95E9F71092E1011092E00141
:101A10001092E2010895CF93DF93EC0197FF0CC081
:101A2000FB018281882341F00E94360DCE019F7711
:101A30000E94900D0E94710D81E0DF91CF91089579
:101A40008CE090E00E94E22590E0B0E0A0E080937E
:101A5000C9029093CA02A093CB02B093CC0208951E
:101A60006091C9028CE090E00C94F0250E94E50F93
:101A7000869581708093CE029091C902913029F4AD
:101A8000882319F089E30E9476120E947C1A8093C1
:101A9000CD020E948F1A8091C902813089F088237B
:101AA00059F0823091F08430B9F08FE39CE90197CE
:101AB000F1F700C00000089582EE0E947711F5CF83
:101AC00088E193E00E948206F0CF82EE0E947711B7
:101AD00087E50E947612E9CF86EE0E94761288E1B1
:101AE000F8CF8091C902813071F0882341F08230B3
:101AF00031F0843099F08091CD020C948C1A82EEF2
:101B00000E940912F8CF8CE20E9476128091CE02D8
:101B1000882389F389E30E947612EDCF88E2FBCF18
:101B20000F931F93CF93DF938C01CCE0D0E0C801DB
:101B30000C2E02C0969587950A94E2F78F700E944A
:101B40000B082497CC3F8FEFD80789F7DF91CF910F
:101B50001F910F9108950F931F93CF93DF93EC0183
:101B60008B01FB018281882361F00E947C1ACE01E7
:101B7000825E9C458530910520F48093C9020E94C5
:101B8000300DB801CE01DF91CF911F910F910C94D0
:101B90000B0D0F931F93CF93DF93C42FD22FFC0114
:101BA00082818823C9F04093EB010E94231D90930A
:101BB000EA018093E90180E28C0F883008F050C080
:101BC000C77081E001C0880FCA95EAF7DF91CF9115
:101BD0001F910F910C947E121091EB01141335C0DC
:101BE0008091E9019091EA010E943B1D883C91059A
:101BF00060F5C0E2CD0F1D17B9F080E2810F88308B
:101C000040F4177081E001C0880F1A95EAF70E942E
:101C10008512C83048F481E09D2F977001C0880F6D
:101C20009A95EAF70E947E12802F0E947612C830A1
:101C3000B8F4D77081E001C0880FDA95EAF7DF9138
:101C4000CF911F910F910C94851280E28C0F8830F8
:101C500038F4C77081E001C0880FCA95EAF7EFCF6A
:101C6000DF91CF911F910F9108950F939C01CB01AC
:101C7000243F4CE5340759F1A8F4293DFCE53F0722
:101C800001F12A3D4CE53407D1F1283D3C4591F462
:101C900006E221EE41EE68ED7CE50E94C90D80E090
:101CA0000F910895263FFCE53F07E9F0B0F0273F8C
:101CB0003C45F9F0FC018281882339F11092EB0157
:101CC000EFCF07E225EE45EE69ED7CE5E6CF06E2D3
:101CD00021EE40EE64EF7CE5E0CF07E225EE44EE36
:101CE00065EF7CE5DACF06E221EE42EE66EF7CE5B9
:101CF000D4CF07E225EE46EE67EF7CE5CECF08E2D3
:101D000021E045EE6AED7CE5C8CF81E0C9CFCF93F5
:101D1000DF93EC01FB018281882309F419C1C230F1
:101D2000FCE5DF07C0F1C6319CE5D90730F09E0124
:101D30002B5F3C452930310570F50E944D1B909377
:101D4000D4028093D302C031ECE5DE0709F4CFC0A2
:101D500008F05BC0C8308CE5D80709F4B6C088F538
:101D6000C430ECE5DE0709F4A8C0C0F4C2308CE54D
:101D7000D80709F49CC08091D3028260C330DC454F
:101D800009F498C08091D3029091D4020E945B1B09
:101D90000E94FD1480E0DF91CF9108958091D302DD
:101DA0008061C630ECE5DE0709F484C08091D3027F
:101DB0008860C730DC4508F47DC08091D302806222
:101DC00079C0CC308CE5D80709F489C070F48091D3
:101DD000D3028C60CA30ECE5DE0709F46BC008F46E
:101DE00078C08091D3028E7F65C0CE308CE5D80755
:101DF00009F479C08091D3028B7FCF30DC4508F4A1
:101E000059C08091D3028F7E55C0CC3FECE5DE07F0
:101E100009F457C030F5C3318CE5D80709F46FC019
:101E200078F4C131ECE5DE0709F465C0C231DC4568
:101E300009F0A8CF0E94FD148091D3028F773AC099
:101E4000C5318CE5D80709F462C008F476C08091EA
:101E5000D4028160CB3FDC4509F094CF8093D4025B
:101E600091CFC115FDE5DF0709F44DC088F48091DD
:101E7000D4028D7FCE3F9CE5D90781F38091D402B7
:101E80008E7FCF3FDC4550F38091D4028360E6CF54
:101E9000C230FDE5DF0709F459C008F444C080E012
:101EA000C330DD4509F06ECF0E94E01B6BCF8091FF
:101EB000D30281608093D30265CF8091D302846086
:101EC000F9CF8091D4028260C9CF8091D30280641F
:101ED000F1CF0E94FD148091D3028068EBCF8091F6
:101EE000D3028D7FE7CF8091D302877FE3CF8091AC
:101EF000D3028F7DDFCF8091D3028F7BDBCF8091A8
:101F0000D302837FD7CF8091D4028C7FA7CF8091DB
:101F1000D30282FB992790F921E0922790FB82F966
:101F200090FB83F9C7CF8091D402982F9095917040
:101F30008E7F892B90FB81F991CF0E94FD149091A7
:101F4000D302892F97FB87F98058B4CF81E0ACCFBB
:101F500081E021CFCF93DF93EB0186319C4511F5D2
:101F60000E947C1A9A81992399F08A7A91E009F467
:101F700090E09093EC01811109C089E20E94571A08
:101F80000E94CB1A80E0DF91CF91089585E3F6CFD0
:101F90008091EC01811104C089E20E945E1AF0CFA9
:101FA00085E3FBCF81E0EFCF9093F2018093F101C5
:101FB0000895E091F101F091F201309721F0019044
:101FC000F081E02D099480E00895E091F101F09115
:101FD000F201309711F480E008950190F081E02D36
:101FE00009950895E091F101F091F201309799F08F
:101FF00020911201222359F02091D30227FF07C01C
:10200000DC012C9111962C93119725E02C930280E2
:10201000F381E02D09940895E091F101F091F2012E
:10202000309739F022E0DC012C930480F581E02D1B
:10203000099408952091EF013091F0012817390794
:1020400071F09093F0018093EF01E091F101F09134
:10205000F201309721F00680F781E02D0994089570
:102060002091ED013091EE012817390771F090931E
:10207000EE018093ED01E091F101F091F2013097D2
:1020800021F00084F185E02D099408950E942F1D10
:1020900060930402709305028093060290930702F6
:1020A00060930002709301028093020290930302F6
:1020B000089585B7806885BF85B7806885BF089516
:1020C000089508950C94601008950C9464100E9473
:1020D00059108EE29BE10E947F1D0E9461100C94BA
:1020E000621081E008950C947110089508950E9483
:1020F0001A1D0E9486030E94CF1DE3EDF2E080814D
:10210000806880838091D3029091D4020E945B1BEF
:102110000C9465108F929F92AF92BF92CF92DF92F4
:10212000EF92FF920F931F93CF93DF93CDB7DEB75C
:102130002A970FB6F894DEBF0FBECDBF0E94751070
:102140000E9476100E94F50381110E94461054EF00
:10215000852E51E0952E10E000E0A02E802F0E94E9
:10216000A4046C01F401E190F1904F01E816F90626
:1021700009F45CC08091A50281FD0E94AD04C701F5
:102180008C259D25B12CEE24E394F12C9C012E216D
:102190003F21232B09F444C00E9473108823A9F027
:1021A000BE82AF82CE20DF2081E0CD2809F480E01E
:1021B00088870E94231D8160782F9A8789874E81A6
:1021C0005F8168858A850E944011000F111FF80108
:1021D000EC50FE4F80819181E826F926F182E08261
:1021E0000E94F10B0E94D90F9091F3018917A9F178
:1021F0000E94D90F8093F3012A960FB6F894DEBFA0
:102200000FBECDBFDF91CF911F910F91FF90EF9047
:10221000DF90CF90BF90AF909F908F900C94690803
:10222000B394EE0CFF1CFEE0BF12B0CF0F5F1F4F48
:102230000630110509F091CF8FEF89838A831B82C5
:102240000E94231D8160782F9D838C8349815A8150
:102250006B818D810E944011C3CF2A960FB6F894EE
:10226000DEBF0FBECDBFDF91CF911F910F91FF90C9
:10227000EF90DF90CF90BF90AF909F908F90089598
:10228000DF92EF92FF920F931F93CF93DF93CDB71F
:10229000DEB72B970FB6F894DEBF0FBECDBF7A879F
:1022A0008B87F42E052F162FE72ED82E61110E9452
:1022B0009F1A1E821D827E2DEC82DD824F2D502FB3
:1022C000612F8D2D9E812B960FB6F894DEBF0FBE29
:1022D000CDBFDF91CF911F910F91FF90EF90DF90D5
:1022E0000C947317FC01808191810C94291ACF936F
:1022F000C82F882309F48BC08238C1F40E94D90FFB
:1023000081FD85C089E30E94571A0E94CB1A2FEFE6
:1023100081EE94E0215080409040E1F700C0000041
:1023200089E30E945E1ACF910C94CB1A8338A1F4F2
:102330000E94D90F80FD6BC083E50E94571A0E944E
:10234000CB1A2FEF81EE94E0215080409040E1F7CE
:1023500000C0000083E5E5CF8438A1F40E94D90FC6
:1023600082FD55C087E40E94571A0E94CB1A2FEFB6
:1023700081EE94E0215080409040E1F700C00000E1
:1023800087E4CFCF8CEF8C0F813A90F46C2F809143
:102390000601909107010E94F91B882329F08C2FD8
:1023A0000E945E1A0E94CB1A8C2F0E94571ABBCF34
:1023B00080E28C0F883048F4C77081E001C0880F3C
:1023C000CA95EAF70E947F1AAECFEBE5EC0FE33037
:1023D00040F4F0E0EE58FE4F808190E0CF910C94F5
:1023E0001A10E8E5EC0FE73150F4F0E0EE0FFF1FB4
:1023F000EC5BFE4F80819181CF910C943010CD3EEB
:1024000030F08C2F0E94030BCF910C94D60BCF9100
:102410000895882309F452C0823871F40E94D90FBC
:1024200081FF4CC089E30E94571A0E94CB1A89E3AE
:102430000E945E1A0C94CB1A833859F40E94D90F6B
:1024400080FF3CC083E50E94571A0E94CB1A83E5A7
:10245000EFCF843859F40E94D90F82FF2FC087E450
:102460000E94571A0E94CB1A87E4E2CF9CEF980F84
:10247000913AF0F290E2980F983050F4877091E022
:1024800001C0990F8A95EAF7892F0E94851AD2CF49
:102490009BE5980F933020F490E080E00C941A10A4
:1024A00098E5980F973120F490E080E00C9430107C
:1024B0008D3E20F00E945D0B0C94D60B08951F9367
:1024C000CF93DF93182FEB010E947711209731F4FF
:1024D000812FDF91CF911F910C9409128FE99FE01A
:1024E0000197F1F700C000002197F0CF70E060E0A5
:1024F000893311F460E570E00C945F12882321F0B9
:102500000E947F1A0C94CB1A0895882321F00E9410
:10251000851A0C94CB1A0895BF92CF92DF92EF9256
:10252000FF920F931F93CF93DF937C01D62FC72F7A
:10253000FC011281058102950F700E94751AD82E38
:102540008823A1F0D12E112389F08C2F807F803435
:1025500029F080E28D0FD12C883040F082E00E947B
:10256000161B0E94751A91E0D82ED926CC2EC29443
:102570009FE0C922EC2DF0E0EA5DF94D0C94C825EE
:102580000C2F0F70C07F11F00295007F1123A9F06E
:10259000002359F080E28D0F883010F0D11109C06E
:1025A000802F0E947F1A0E94CB1A8D2F0E947711D4
:1025B00014C0802F0E94921AF6CF8D2F0E9409120C
:1025C000002359F080E28D0F883010F0D1112CC01B
:1025D000802F0E94851A0E94CB1A2C2D2850330B75
:1025E0002430310520F40E94D90F0E946908DD20B3
:1025F00009F496C10E94711A80FD92C1F7011282FE
:102600000E946B1A0E94F718C7010E94B1140E9421
:102610006B1ADF91CF911F910F91FF90EF90DF9098
:10262000CF90BF900C941819802F0E94981AD3CF86
:10263000FC2FFF70BF2EC07FC03219F0B29480EF24
:10264000B822DD2339F0D13019F1112359F10023DB
:1026500021F1ABCF112381F0011106C00E94B21A03
:102660008B290E947E12B9CF0130C1F70E94B21AA5
:102670008B290E94B81AB1CF011106C00E94C11A5D
:102680008B2D0E948512A9CF013009F4A6CFF6CF79
:10269000112329F0023008F0A0CF8B2DE2CF0111D9
:1026A0009CCFEECF002361F3D93349F42FEF37EEFF
:1026B00083E0215030408040E1F700C000008D2FC2
:1026C0000E9409128ACF8C2F86958695837069F0B7
:1026D000813009F082CF8D2F9C2F9370111102C091
:1026E00090E080E00E94301078CF8D2F9C2F937067
:1026F000111102C090E080E00E941A106ECF8D2F61
:10270000112329F00E94030B0E94D60B66CF0E9472
:102710005D0BFACF8C2F837009F041C011115DCF92
:102720004D2F429546954770440F440F0D2F0F7063
:1027300010E030E020E0042E04C0000F111F221F23
:10274000331F0A94D2F760E070E0CB01D4FF0FC0D2
:102750006FE070E080E090E004C0660F771F881F94
:10276000991F4A95D2F76095709580959095C6957A
:10277000C695C370602B712B822B932BC23049F00E
:1027800058F4C13019F00E94A91827CF0E94971859
:1027900024CF0E94BB1821CF0E9495181ECF86958A
:1027A000112311F08C2F8170882309F416CF4D2F3F
:1027B000429546954770440F440F0D2F0F7010E05F
:1027C00030E020E0042E04C0000F111F221F331F31
:1027D0000A94D2F760E070E0CB01D4FF0FC06FE045
:1027E00070E080E090E004C0660F771F881F991F9B
:1027F0004A95D2F76095709580959095C695C69547
:10280000C370602B712B822B932BC23049F058F48C
:10281000C13019F00E946E19E0CE0E945C19DDCE25
:102820000E948019DACE0E94D118D7CECF70112322
:1028300029F08C2F0E94F7188D2F13CF8D2F0E9417
:1028400085128C2F0E941819C8CED23F81F160F4F6
:10285000D03FC9F0D13F21F1112309F441C001114A
:10286000A4CE8C2F8F7120C0D33F31F1D43FA1F77C
:10287000112361F1CF718C2F0E94F71863E08C2F28
:102880000E94011BAACE112339F00111A6CE8C2F74
:102890008F710E943B19A1CE023008F09ECEF7CF77
:1028A0008C2F8F71112371F20E94F71896CE8C2F06
:1028B0008F711123C9F3C6CF112329F08C2F8F718B
:1028C0000E94E2188ACE0E94DD1887CE81E00E9425
:1028D000161B023008F481CE82E00E94161B7DCECA
:1028E000002359F0D93309F0EACE9FEFE7EEF3E089
:1028F0009150E040F040E1F7E0CE8C2F8F71A2CFF5
:102900004C2F4F706D2FC7010E9471080E940D1847
:1029100064CE4C2F4F706D2FC7010E9474085DCE9E
:10292000DF91CF911F910F91FF90EF90DF90CF90AB
:10293000BF9008950F931F93CF93DF93EC016881AD
:1029400079818A810E94331A8C010E9492190E9417
:102950009418B801CE01DF91CF911F910F910C9483
:102960008C12CF93DF93EC018B819C81892B29F012
:102970008881998189238F3F59F4DF91CF91089500
:10298000CE010E949A14CE01DF91CF910C94CF0614
:10299000CE010E94F6068111F3CF0E94751A88239A
:1029A00061F38A81882349F382E0DF91CF910C940F
:1029B000161B882321F00E94921A0C94CB1A0895BA
:1029C000882321F00E94981A0C94CB1A089590E065
:1029D00080E00E941A1090E080E00E9430100E9477
:1029E0009F1A0E94AF1A0E94CB1A0E94FD0C0C94F1
:1029F000D60B0E94651A0C94E7140E948F1A0C944F
:102A0000F914E92FE295EF70E250EE3070F4F0E047
:102A1000EA5CF94D0C94C825803F19F020F4883EFB
:102A200020F481E00895843FE1F380E00895883E3A
:102A3000C0F3813FD1F7F5CF93FB882780F9089544
:102A40000E94291A0C940115CF93DF9300D000D077
:102A50000F92CDB7DEB70F900F900F900F900F90A1
:102A6000DF91CF910895CF93DF9300D000D000D0B5
:102A7000CDB7DEB726960FB6F894DEBF0FBECDBF3A
:102A8000DF91CF9108951F93CF93DF93C0910902F7
:102A900016E080910A028C1304C0DF91CF911F9140
:102AA0000895D0E01C9FF0011D9FF00D1124E55FFB
:102AB000FD4F4081518162817381848195810E94A3
:102AC00033152196C770E5CF40913B0250913C02EF
:102AD00060913D0270913E0280913F0290914002D0
:102AE0000C9433151F93CF93DF9380914002807F26
:102AF000A9F480913D02882389F080910902C09158
:102B00000A0260913B0270913C02A0913E02B0919A
:102B10003F02D62FD72316E0C81304C0DF91CF9110
:102B20001F91089590E0109711F0DF3F19F401967E
:102B30008770F2CF189F9001199F300D1124F90171
:102B4000E55FFD4F41814713F2CF40814613EFCF40
:102B500042814111ECCF438154814A1B5B0B483CBD
:102B6000510528F7809140028F7080618093400268
:102B7000F901E05FFD4F80818F70806180838BE37E
:102B800092E00E94B114DF91CF911F910C944315F4
:102B9000AF92BF92CF92DF92EF92FF920F931F936B
:102BA000CF93DF93CDB7DEB761970FB6F894DEBF52
:102BB0000FBECDBF8C0185E0F801DE011D960190AE
:102BC0000D928A95E1F7F80140815181E2808BE313
:102BD000C82E82E0D82E60913E0270913F026115AE
:102BE000710509F461C190913B0220913C02892F4B
:102BF00082238F3F09F458C1A380B480F0903D0236
:102C0000F501E61BF70BFF2009F4FCC080914002A0
:102C1000382F307FE83CF10508F0B2C0311179C09F
:102C2000FE2C251323C0941321C0E1101FC08F7008
:102C30008061809340020E946415C6010E94B11415
:102C400080914002F80185838F2D61960FB6F8942C
:102C5000DEBF0FBECDBFDF91CF911F910F91FF90CF
:102C6000EF90DF90CF90BF90AF900895AB2829F000
:102C7000842F85238F3F09F033C180E0F82FF17056
:102C8000DF2E80FF3CC08091090220910A0236E0CD
:102C9000821315C04D875E878D859E850E94291AF7
:102CA000292F22952F702230F0F0243018F59F70D4
:102CB000F1F0F8019581907FD1F4D12C1EC090E005
:102CC000389FF001399FF00D1124E55FFD4F6181C0
:102CD000651306C06081641303C062816E110FC06A
:102CE00001968770D5CF9F7011F0882331F3805EF5
:102CF000883018F3C8010E94B114FD2CA5CFEE2036
:102D000009F4A2CF80914002816080934002F12CAF
:102D10009BCF251306C0941304C0F801EE2009F4DC
:102D20008DC04D875E878D859E850E9420158823E6
:102D300019F1EE2009F180914002803270F020916B
:102D40003B0230913C0238872F831986BB86AA86C6
:102D50008C87CE0107960E94B11486E0F801ABE3A0
:102D6000B2E001900D928A95E1F70E9472150E94DF
:102D70006415FF24F39468CFC8010E94B114F9CF01
:102D8000311113C07A2DB98AA88A6E2D89890E94C3
:102D900024158BE392E00E94B11486E0F6011192B3
:102DA0008A95E9F70E946415B2CF25130FC09413DA
:102DB0000DC0E1100BC0F8018583C8010E94B11459
:102DC00086E0F60111928A95E9F73ECF4D875E873E
:102DD0008D859E850E942015882371F2EE2061F278
:102DE00080914002803208F4B8CF20913B023091AC
:102DF0003C023A8329831B82BD82AC828E83CE0142
:102E00000196A9CFE83CF10508F041C0FE2CEE2068
:102E100009F4B2CF25132AC0941328C08091400230
:102E200080FD1BC0982F907FC1F0F8018583903FF3
:102E300031F0982F907F905F8F70892B8583C80128
:102E40000E94B11486E0F801ABE3B2E001900D926C
:102E50008A95E1F70E946415F7CE86E0F801ABE3AE
:102E6000B2E001900D928A95E1F7EECE4D875E8734
:102E70008D859E850E94201581116FCF8091400223
:102E8000816080934002C8010E94B114DDCE7A2D8A
:102E9000B98AA88A6E2D89890E94241586E0F601D8
:102EA00011928A95E9F7D6CFEE2009F465CF4D87C8
:102EB0005E878D859E850E942015F82E882309F453
:102EC0005BCF86E0F801ABE3B2E001900D928A950A
:102ED000E1F78BE392E00E9472110E947215BACF63
:102EE00081E08E25CBCE1F93CF93DF93CDB7DEB796
:102EF0002C970FB6F894DEBF0FBECDBF4F83588717
:102F000069877A878B879C87CE0107960E94C815B0
:102F1000882369F08A859B85892B39F04F815885F4
:102F2000842F85238F3F09F071C016E05FC086E0D3
:102F3000FE013796DE01119601900D928A95E1F718
:102F40008A859B85892B89F38F81988589238F3F7B
:102F500061F320910A0230E0C90101968770992738
:102F6000409109024817190671F40E94FD1410924D
:102F70000A021092090286E0EBE3F2E0DF011D9203
:102F80008A95E9F7D2CF96E0929FD001939FB00D3A
:102F90001124A55FBD4FFE01319601900D929A95C7
:102FA000E1F780930A020E944315BFCF819FC001C1
:102FB0001124855F9D4F0E94C8158823E9F0E09198
:102FC00009021E9FF0011124E55FFD4F40815181F0
:102FD00062817381848195810E94331580910902F9
:102FE00090E00196877099278093090280910902E9
:102FF00090910A028913DACF2C960FB6F894DEBFAF
:103000000FBECDBFDF91CF911F91089569857A855D
:103010008B859C850E94331588CFEF92FF920F938A
:103020001F93CF93DF938C01892B81F0F12CEE2439
:10303000E394E8012196F8018491843770F4843098
:1030400008F05FC08130B1F08230A1F1DF91CF9103
:103050001F910F91FF90EF900895853709F44CC0B0
:1030600008F43DC09CE7980F903780F78F770E9457
:10307000091249C00E5F1F4FFE01849190E2980F24
:10308000983060F48770FE2D01C0FF0F8A95EAF733
:103090008F2F0E94A21A0E94CB1A02C00E947711A1
:1030A0008F2D815030F2EFE9FFE03197F1F700C04A
:1030B0000000F7CF0E5F1F4FFE01849190E2980F42
:1030C000983050F48770FE2D01C0FF0F8A95EAF703
:1030D0008F2F0E94A81ADFCF0E940912E1CF0E5F46
:1030E0001F4FFE01C491C150D8F28FE99FE00197B4
:1030F000F1F700C00000F7CF0E5F1F4FFE01F49004
:10310000CFCF0E9477118E01CBCF08950C948518F4
:103110000E94861860937C0270937D0280937E02E9
:1031200090937F020C94E71408950C9488180F93E1
:103130001F9300917C0210917D0220917E023091BC
:103140007F02602B712B822B932B1F910F910C947C
:1031500088180F931F9300917C0210917D0220919B
:103160007E0230917F0260237123822393231F917B
:103170000F910C9488180F931F9300917C0210916B
:103180007D0220917E0230917F0260277127822785
:1031900093271F910F910C9488180C9485180C9408
:1031A000CD180E94CF1860937802709379028093B3
:1031B0007A0290937B020C94E71460E070E0CB01FC
:1031C0000C94D1180F931F9341E050E060E070E041
:1031D0008A019B0104C0000F111F221F331F8A9513
:1031E000D2F7C901B8011F910F910C94D1180F9318
:1031F0001F9341E050E060E070E004C0440F551FB1
:10320000661F771F8A95D2F7809178029091790294
:10321000A0917A02B0917B028A019B01082B192BA5
:103220002A2B3B2BC901B8011F910F910C94D11887
:103230000F931F9341E050E060E070E004C0440F42
:10324000551F661F771F8A95D2F7CB01BA0160958B
:103250007095809590950091780210917902209157
:103260007A0230917B0260237123822393231F9182
:103270000F910C94D1180F931F9341E050E060E040
:1032800070E004C0440F551F661F771F8A95D2F760
:103290008091780290917902A0917A02B0917B029C
:1032A0008A019B01082719272A273B27C901B80152
:1032B0001F910F910C94D1180F931F9300917802D6
:1032C0001091790220917A0230917B02602B712B50
:1032D000822B932B1F910F910C94D1180F931F9356
:1032E000009178021091790220917A0230917B024C
:1032F00060237123822393231F910F910C94D11883
:103300000F931F93009178021091790220917A0215
:1033100030917B0260277127822793271F910F919D
:103320000C94D11808952EE0929F800D1124982FAF
:10333000977041E001C0440F9A95EAF7869586950B
:10334000869595E0899FF0011124EF5BFD4F90E099
:1033500080E070E05191DF0111979B01082E02C0BF
:10336000369527950A94E2F7217021952527242385
:1033700025272C9301968530910561F708952EE05D
:10338000929F800D1124982F97708695869586952B
:1033900025E0829FF0011124EF5BFD4F50E040E0FB
:1033A00080E0219130E0092E02C0369527950A94DD
:1033B000E2F721703327042E01C0220F0A94EAF7A6
:1033C000822B4F5F5F4F4530510559F70895BF92EB
:1033D000CF92DF92EF92FF920F931F93CF93DF93E1
:1033E0008C01C0907802D0907902E0907A02F0903F
:1033F0007B0280917C0290917D02A0917E02B0912F
:103400007F02C82AD92AEA2AFB2ACFE1D0E0BC2EC3
:10341000D701C6010C2E04C0B695A7959795879540
:103420000A94D2F780FD0EC0219788F7B12C8B2D1E
:10343000DF91CF911F910F91FF90EF90DF90CF9090
:10344000BF900895B8018C2F0E949108019761F3F5
:10345000EECFCF93DF93EC010E94E719BE01DF911D
:10346000CF910C9491081F93CF93DF93EB01909130
:103470000802992331F0CB01DF91CF911F910C9479
:10348000291A882379F0CB010E94E719182F682F99
:10349000CE010E949319BE01812FDF91CF911F9120
:1034A0000C949108CB010E94BF19182FF4CF682FFC
:1034B00080910601909107010C94791C682F8091EE
:1034C0000601909107010C94841C80910601909153
:1034D00007010C948F1C80918002859585958595B8
:1034E000089580918002877008959091800297706E
:1034F00081E009F480E008958091A40208959091FC
:10350000A402892B8093A402089580959091A4022F
:1035100098239093A40208958093A4020895109292
:10352000A40208959091A302892B8093A302089589
:1035300080959091A30298239093A30208951092EE
:10354000A30208959091A202892B8093A20208956C
:1035500080959091A20298239093A20208951092D0
:10356000A202089580918102089508950C94B51ADD
:1035700090918102981721F0809381020C94B61AE1
:10358000089580918102882329F01092810280E0C1
:103590000C94B61A0895E0910601F091070180910C
:1035A000A4028083E0910601F0910701808190914F
:1035B000A302892B8083E0910601F09107018081AD
:1035C0009091A202892B808390918102992381F0AE
:1035D000E0910601F09107018081892B8083809121
:1035E0000601909107010E94E51B81110E94C11AFA
:1035F00080910601909107010C94F20F08950C94AC
:10360000FE1A98E0899F90011124622B609380023A
:103610000E94F718809180028595859585950C9478
:10362000FF1A1092800280E00C94FF1A90918002A1
:103630008095892380938002282F277071F4282F8A
:10364000082E000C330B9217130639F085958595DB
:1036500085950E9418190C94111B089580E0089517
:1036600090E080E00E94EA2521E08B3E9E4F09F029
:1036700020E0822F089582E090E00C94E225682FEC
:1036800082E090E00C94F02583E090E00C94E22539
:10369000682F83E090E00C94F025CF9384E090E0D5
:1036A0000E94E225C82F81E290E00E94E225982F37
:1036B0008C2FCF910895CF93C92F682F84E090E08D
:1036C0000E94F0256C2F81E290E0CF910C94F025C0
:1036D000AB01BC018FE090E00C940226AB01BC0171
:1036E00083E190E00C94022660E070E0CB010C9442
:1036F0006E1B60E070E0CB010E94681B0C94741B91
:103700006BEE7EEF90E080E00E940E2660E082E0AB
:1037100090E00E94F02560E083E090E00E94F025B8
:1037200010927C0210927D0210927E0210927F0213
:1037300060E084E090E00E94F02560E081E290E0AB
:103740000E94F02560E085E090E00E94F02560E0B6
:1037500086E090E00E94F0256FEF87E090E00E9405
:10376000F02540E050E0BA0188E090E00E94022697
:1037700060E08DE090E00E94F02540E050E0BA016A
:1037800088E190E00E94022660E087E190E00E94DC
:10379000F02540E050E0BA018CE190E00E94022662
:1037A00060E080E290E00E94F02540E050E0BA0145
:1037B00088E190E00E9402260C94791B0C94801BF7
:1037C000682F8EE090E00C94F025FC0132968091F9
:1037D0001201882321F08091D3029EE187FF96E0B9
:1037E00080E0915008F4089521912223D1F38F5F56
:1037F000F8CF662301F1209112012223F1F02091EC
:10380000D30227FF1AC0462F4695469546954E315E
:1038100090F4677021E030E002C0220F331F6A95F8
:10382000E2F7840F911DFC01828190E02823392367
:1038300081E0232B69F480E00895FC01329608961C
:103840002191261721F0E817F907D1F7F4CF81E08D
:1038500008959C01FC0132969FEF80E0419146174C
:1038600051F09F3F19F4411101C0982F8F5F8630AE
:10387000A9F79F3F09F40895290F311D97FD3A9547
:10388000F90162830895FC0132960896219126136E
:1038900003C0DF0111971C92E817F907B9F70895E3
:1038A000E62FE695E695E695EE3168F4E80FF92FF8
:1038B000F11D677021E030E001C0220F6A95EAF740
:1038C0008281822B82830895E62FE695E695E69520
:1038D000EE3170F4E80FF92FF11D677021E030E050
:1038E00001C0220F6A95EAF720958281282322835E
:1038F000089520911201222329F02091D30227FD5F
:103900000C94501C0C94291C20911201222329F0A4
:103910002091D30227FD0C94641C0C94431CFC01E1
:10392000329680911201882351F08091D30287FF53
:1039300006C08EE1DF011D928A95E9F7089586E0C1
:10394000F9CF08950C94A11C8091D902843049F1DB
:103950000E94A21C80E00E9469081092A60288E1E1
:1039600090E020E40FB6F894A895809360000FBE15
:103970002093600083B7817F846083BF83B78160B9
:1039800083BF7894889583B78E7F83BF0FB6F894F2
:10399000A89580916000886180936000109260001B
:1039A0000FBE08950895CF930E949C030E94F503D3
:1039B0000E94D21CC0E08C2F0E94A404892B31F4F9
:1039C000CF5FC630C1F780E0CF91089581E0FCCF92
:1039D00008950C94E81C0E94FD140E94D90F0E94C7
:1039E00069080C94E91C1F921FB61F9211248F9333
:1039F0009F93AF93BF938091A602811113C08091D2
:103A0000CF029091D002A091D102B091D202419602
:103A1000A11DB11D8093CF029093D002A093D1023B
:103A2000B093D202BF91AF919F918F911F901FBE13
:103A30001F90189582E084BD93E095BD9AEF97BDE5
:103A400080936E0008952FB7F8948091CF029091E3
:103A5000D002A091D102B091D2022FBF08952FB70A
:103A6000F8946091CF027091D0028091D102909130
:103A7000D2022FBF08959C014FB7F8948091CF02D6
:103A80009091D002A091D102B091D2024FBF821B7F
:103A9000930B089578941F921FB61F9211248F9351
:103AA0009F93AF93BF938091CF029091D002A0914A
:103AB000D102B091D2020196A11DB11D8093CF0217
:103AC0009093D002A093D102B093D202BF91AF9154
:103AD0009F918F911F901FBE1F90189587E797E7C2
:103AE000909301088093000888E19AE00FB6F8945B
:103AF000A895809360000FBE90936000FFCF9093D5
:103B00007701809376010895AF92BF92CF92DF92B2
:103B1000EF92FF920F931F93CF93C0E0CC24C394F6
:103B2000D12CE82EF12C8C2F0E94A4045C0110E013
:103B300000E0C601002E02C0880F991F0A94E2F728
:103B40008A219B21892B99F40F5F1F4F0E3011059D
:103B500081F7CF5FC63039F780E0CF911F910F9189
:103B6000FF90EF90DF90CF90BF90AF900895602FBF
:103B70007C2F80E00E947508E816F90629F781E09D
:103B8000ECCFCF93C82F8CE20E94841D882321F0B4
:103B90008C2FCF910C94841D80E0CF910895CF930A
:103BA0000E94301B811102C00E94DE1BC5E608C0C6
:103BB0000E94F5038FE39CE90197F1F700C0000034
:103BC000C150B1F789E20E94C11D81110BC18AE287
:103BD0000E94C11D81110E94DE1B85E00E94C11D53
:103BE00081110E946E1D0E943B1B8093A50287E0FD
:103BF0000E94C11D882371F08BE10E94C11D8823A2
:103C000009F4CDC09091A502892F8D7F91FF82602C
:103C10008093A5028091A5020E943F1B0E944D1B2C
:103C20009093D4028093D30280EE0E94C11D88231A
:103C300041F09091D302892F8E7F90FF8160809315
:103C4000D30289E30E94C11D882341F09091D302E1
:103C5000892F8D7F91FF82608093D30282EE0E9434
:103C6000C11D882341F09091D302892F8B7F92FF51
:103C700084608093D30286EE0E94C11D882341F0A8
:103C80009091D302892F877F93FF88608093D3021E
:103C900083EE0E94C11D882341F09091D302892FA9
:103CA0008F7E94FF80618093D30285E30E94C11DC3
:103CB000882341F09091D302892F8F7D95FF8062F8
:103CC0008093D30281E30E94C11D882341F090912B
:103CD000D302892F8F7B96FF80648093D30281E18A
:103CE0000E94C11D882341F09091D302892F97FB38
:103CF00087F980588093D3028091D3029091D402A7
:103D00000E945B1B87E20E94C11DC82F8EE10E94AA
:103D1000C11D8111C2608FE10E94C11D8111C4606B
:103D200080E20E94C11D8111C86081E20E94C11D14
:103D30008111C06182E20E94C11D8111C06283E2D3
:103D40000E94C11D8111C06484E20E94C11D8823AC
:103D500009F442C0C0688C2F0E94481B6C2F70E091
:103D600090E080E00E94951860917802709179024D
:103D700080917A0290917B020E94CF188FE00E947E
:103D8000C11D882319F081E00E94E01B85E10E949B
:103D9000C11D882339F180E0CF910C94E01B8EE0A7
:103DA0000E94C11D882339F09091A502892F8B7F35
:103DB00092FF84602DCF80E10E94C11D9091A502E9
:103DC000882329F0892F877F93FF886021CF892F4F
:103DD0008E7F90FF81601CCFC111BDCF0E94441B1C
:103DE000682FBDCFCF9108958091C7020895CF93DA
:103DF000DF9300D00F92CDB7DEB79091D902943007
:103E000019F589837B836A8382E08093E9008FEFD1
:103E10009091E800815095FD06C095ED9A95F1F7D7
:103E200000008111F5CF8091E80085FF0DC050E0C2
:103E300040E063E070E0CE0101960E942321809172
:103E4000E8008E778093E8000F900F900F90DF913D
:103E5000CF910895BC0184E00C94F71EBC0183E06F
:103E60000C94F71E9C0182E08093E9009FEF809103
:103E7000E800915085FD06C085ED8A95F1F70000B8
:103E80009111F5CF8091E80085FF0CC050E040E033
:103E900066E070E0C9010E9423218091E8008E77DE
:103EA0008093E8000895CF93DF93EC018091120195
:103EB0008823B1F18091D30287FF32C060E282E0B3
:103EC0008093E9008FEF9091E800815095FD06C046
:103ED00095ED9A95F1F700008111F5CF8091E800FA
:103EE00085FF1BC08091120170E050E040E081111D
:103EF00004C050E040E068E070E0CE010E94232161
:103F00008091E8008E778093E80080E2FE01A7EAC6
:103F1000B2E001900D928A95E1F7DF91CF9108957B
:103F200068E081E0CDCF8091D802811109C00E9464
:103F3000B3220E9410238091E20084608093E2000B
:103F400008951092D802089508950895089542E0C2
:103F500061EC81E00E942F2242E261EC82E00C944D
:103F60002F228091DB02833009F45FC030F481306E
:103F7000C1F1823009F49BC008958A3009F487C0EA
:103F80008B3009F46DC0893009F04EC08091DA029F
:103F9000813209F049C08091DE029091DF020297E0
:103FA00008F042C08091E800877F8093E80080910C
:103FB000E80082FF35C09091F3008091F2000297F3
:103FC00029F48091F1008B7F813021F48091F10000
:103FD0008093C7028091E8008B778093E8000C946F
:103FE00063228091DA02813AF9F48091E800877FB8
:103FF0008093E8008091DE029091DF02892B61F4CA
:1040000060E287EA92E070E00E9472218091E8000D
:104010008B778093E800089560E090E080E0F3CF34
:104020008091D9028111C3CF08958091DA02813A3B
:10403000D9F78091DE029091DF02892BA9F7809158
:10404000E800877F8093E8008091E80080FFFCCF44
:10405000809112018093F1008091E8008E77BDCFAE
:104060008091DA02813201F78091DE029091DF02C5
:10407000892BD1F68091E800877F8093E8000E9429
:1040800063228091DC02809312010C94FD148091D4
:10409000DA02813249F68091E800877F8093E80058
:1040A0000E9463228091DD028093C802089580916E
:1040B000DA02813A09F0B8CF8091E800877F8093D7
:1040C000E8008091E80080FFFCCF8091C802C2CF59
:1040D00084B7877F84BF0FB6F894A895809160005D
:1040E000886180936000109260000FBE80E890E0CD
:1040F0000FB6F89480936100909361000FBE0E9408
:1041000067100E94B3220E9410238091E200846015
:104110008093E20078940E9499250E94771088E0AD
:1041200091E00E94D40F8091D9028530A9F00E94BD
:104130008A100E9475100E947610F5CF0E94A41C70
:104140008091D702882341F00E94D31C882321F05C
:104150000E940D210E94FD148091D902853071F3D7
:104160000E94EB1CE4CF0C94B520292F3327233079
:10417000310519F168F42130310509F444C02230C9
:10418000310509F445C090E080E030E020E025C032
:104190002132310549F122323105A9F780E490E05E
:1041A00021E635E061157105C1F086EB90E02BEA60
:1041B00034E06130710589F0E6CF992781309105AF
:1041C00081F0009729F00297F1F6E2E3F4E002C0F3
:1041D000EAE5F4E0849190E09F01FA0131832083C5
:1041E0000895E6E4F4E0F6CF89E090E020E734E0DB
:1041F0006115710591F389E090E029E834E06130C0
:10420000710559F3C0CF82E190E029E934E0E5CFB0
:104210008BE390E02EE534E0E0CF80E189BD82E1E0
:1042200089BD09B400FEFDCF8091D8008F7D8093B9
:10423000D8008091E00082608093E0008091E000EF
:1042400081FDFCCF0895AF92BF92CF92DF92FF9293
:104250000F931F93CF93DF936C01EB018A010E94B0
:104260008222F82E811123C00115110539F0F801C1
:1042700080819181C81BD90BC80ED91EB12CA12CED
:104280002097A9F08091E80085FD22C08091E80088
:104290008E778093E80001151105A1F0F801808167
:1042A0009181A80EB91EB182A08285E0F82E8F2DD3
:1042B000DF91CF911F910F91FF90DF90CF90BF9032
:1042C000AF9008950E9482228823D1F2F82EEFCF7A
:1042D000F60181916F018093F1002197FFEFAF1AF2
:1042E000BF0ACECFFC018091E0029091E1028617D7
:1042F0009707A0F06115710529F49091E8009E7769
:104300009093E80090E06115710551F4911108C097
:104310008091E80082FF34C080E00895BC01F2CFB4
:104320008091D9028823C1F18530C1F18091E800E4
:1043300083FD30C08091E80082FDEACF8091E800E3
:1043400080FFE1CF8091F3002091F200382F6115BA
:10435000710519F02830310558F091E02830310509
:1043600009F090E02091E8002E772093E800CBCF71
:1043700081918093F100615071092F5F3F4FE7CF2A
:104380008091D902882341F0853041F08091E80086
:1043900083FFBECF81E0089582E0089583E0089511
:1043A000FC018091E0029091E10286179707A0F04E
:1043B0006115710529F48091E8008E778093E800FB
:1043C00090E06115710551F4911108C08091E800E9
:1043D00082FF35C080E00895BC01F2CF8091D90200
:1043E0008823C9F18530C9F18091E80083FD31C08F
:1043F0008091E80082FDEACF8091E80080FFE1CF64
:104400008091F3002091F200382F6115710519F0A9
:104410002830310558F091E02830310509F090E05E
:104420008091E8008E778093E800CBCF84918093D1
:10443000F1003196615071092F5F3F4FE6CF8091B7
:10444000D902882341F0853041F08091E80083FF54
:10445000BDCF81E0089582E0089583E00895982F0C
:10446000973028F08F708093E90081E00895909351
:10447000E900242F762F50E0981731F07091EC006E
:104480002091ED005091F00021FD02C09F5FE8CF28
:104490003091EB003E7F3093EB003091ED003D7F9B
:1044A0003093ED003091EB0031603093EB0070936E
:1044B000EC002093ED005093F0002091EE0027FDDA
:1044C000E5CF80E008958091DA0287FF13C08091E4
:1044D000E80082FF06C08091E8008B778093E800B7
:1044E00004C08091D9028111F2CF08958091D90240
:1044F0008823D9F38091E80080FFF8CF8091E8000D
:104500008E77ECCF2091E4003091E50095E6A9018B
:104510002091EC00822F817020FF06C08091E8007E
:1045200080FF06C080E008952091E80022FD1AC0B7
:104530008091D902882389F0853089F08091EB0041
:1045400085FD0FC02091E4003091E500421753072C
:10455000F9F29150E1F684E0089582E0089583E055
:10456000089581E008950E9421230E942923E0EE0E
:10457000F0E0808181608083E8EDF0E080818F77DA
:10458000808319BCA7EDB0E08C918E7F8C938081E5
:104590008F7E80831092D80208950F931F93CF933C
:1045A000DF930E9421230E942923C8EDD0E0888157
:1045B0008F77888388818068888388818F7D8883CE
:1045C00019BC1092D9021092D5021092D702109203
:1045D000D60200EE10E0F80180818B7F8083888115
:1045E0008160888342E060E080E00E942F22E1EE5B
:1045F000F0E080818E7F8083E2EEF0E08081816058
:104600008083808188608083F80180818E7F8083B1
:10461000888180618883DF91CF911F910F910895E8
:10462000E8EDF0E080818F7E8083E7EDF0E080812F
:104630008160808384E082BF81E08093D8020C9403
:10464000CD22E8EDF0E080818E7F80831092E20041
:1046500008951092DA001092E10008951F920F92CF
:104660000FB60F9211242F933F934F935F936F9345
:104670007F938F939F93AF93BF93EF93FF9380911B
:10468000E10082FF0BC08091E20082FF07C08091B1
:10469000E1008B7F8093E1000E9498258091DA00F1
:1046A00080FF19C08091D80080FF15C08091DA008A
:1046B0008E7F8093DA008091D90080FF96C080E1E0
:1046C00089BD82E189BD09B400FEFDCF81E0809300
:1046D000D9020E94931F8091E10080FF19C0809150
:1046E000E20080FF15C08091E2008E7F8093E2009F
:1046F0008091E20080618093E2008091D800806226
:104700008093D80019BC85E08093D9020E94A51F30
:104710008091E10084FF2BC08091E20084FF27C0DC
:1047200080E189BD82E189BD89B5982F917080FFB4
:10473000FBCF8091D8008F7D8093D8008091E100DD
:104740008F7E8093E1008091E2008F7E8093E20073
:104750008091E20081608093E2008091D5028823FD
:1047600009F449C084E08093D9020E94A61F809179
:10477000E10083FF29C08091E20083FF25C0809182
:10478000E100877F8093E10082E08093D90210925C
:10479000D5028091E1008E7F8093E1008091E2005C
:1047A0008E7F8093E2008091E20080618093E2003E
:1047B00042E060E080E00E942F228091F00088605B
:1047C0008093F0000E94A41FFF91EF91BF91AF91E1
:1047D0009F918F917F916F915F914F913F912F9119
:1047E0000F900FBE0F901F90189519BC1092D90210
:1047F0000E94A11F70CF8091E30087FD93E090930A
:10480000D902B3CF1F920F920FB60F9211242F939C
:104810003F934F935F936F937F938F939F93AF9348
:10482000BF93CF93DF93EF93FF93D091E900DF70B5
:104830008091EC00C82FC17080FDC0E81092E900A3
:104840008091F000877F8093F00078940E94462446
:104850001092E9008091F00088608093F000CD2BE9
:10486000CF70C093E900FF91EF91DF91CF91BF919D
:10487000AF919F918F917F916F915F914F913F91F8
:104880002F910F900FBE0F901F9018951F93CF93ED
:10489000DF93CDB7DEB7AA970FB6F894DEBF0FBE91
:1048A000CDBF8AED92E02091F100FC012193CF0170
:1048B000F2E0823E9F07B9F70E94B11F8091E800A5
:1048C00083FF1EC18091DA029091DB029A3008F0DA
:1048D00017C1E92FF0E0EC5BF94D0C94C825803846
:1048E00099F0823809F00CC18091DE028F70873018
:1048F00008F006C18093E9008091EB0085FB8827D2
:1049000080F91092E90006C08091D6029091D702FA
:10491000911182609091E800977F9093E8008093D6
:10492000F1001092F1008091E8008E77E5C08823B5
:1049300009F4D3C0823009F0E3C08091DC02811118
:10494000D6C08091DE028F702FEF280F263008F03E
:10495000D7C08093E9002091EB0020FFC8C09330BE
:1049600031F48091EB0080628093EB00C0C09091A5
:10497000EB0090619093EB0021E030E001C0220F4A
:104980008A95EAF72093EA001092EA008091EB0002
:104990008860EACF8111B4C01091DC021F7780914A
:1049A000E3008078812B8093E3008091E800877F8B
:1049B0008093E8000E9463228091E80080FFFCCF92
:1049C0008091E30080688093E30082E0111183E02E
:1049D0008093D90295C08058823008F091C08091B0
:1049E000DC029091DD028C3D23E09207A1F583E08B
:1049F0008A838AE289834FB7F894DE01139620E018
:104A00003EE051E2E32FF0E050935700E49120FFA5
:104A100003C0E295EF703F5FEF708E2F90E0EA30B9
:104A2000C0F0C7968D939D932F5F243159F74FBFE8
:104A30008091E800877F8093E8006AE270E0CE0111
:104A400001960E9472218091E8008B778093E800A4
:104A500057C0C096E7CF6091DE027091DF02AE01D1
:104A60004F5F5F4F0E94B320BC01892B09F448C0FF
:104A70009091E800977F9093E80089819A810E9445
:104A8000D021E1CF8038E1F58091E800877F8093E5
:104A9000E8008091D5028093F10045CF811130C0AC
:104AA0009091DC02923060F58091E800877F8093DE
:104AB000E8009093D5020E9463228091D50288235A
:104AC00011F084E005C08091E30087FDFACF81E01A
:104AD0008093D9020E94A71F13C08091DC0281300D
:104AE00079F481E0933009F080E08093D70210924E
:104AF000E9008091E800877F8093E8000E946322AC
:104B00008091E80083FF0AC08091E800877F80934E
:104B1000E8008091EB0080628093EB00AA960FB6CC
:104B2000F894DEBF0FBECDBFDF91CF911F910895E6
:104B30000895CF938091D9028823A1F0C091E90014
:104B4000CF709091EC00892F817090FD80E8C82B88
:104B50001092E9008091E80083FD0E944624CF7006
:104B6000C093E900CF91089597FB072E16F40094A7
:104B700007D077FD09D00E94CE2507FC05D03EF472
:104B8000909581959F4F0895709561957F4F0895F9
:104B9000EE0FFF1F0590F491E02D0994AA1BBB1B9B
:104BA00051E107C0AA1FBB1FA617B70710F0A61B2D
:104BB000B70B881F991F5A95A9F780959095BC014E
:104BC000CD010895F999FECF92BD81BDF89A99273C
:104BD00080B50895A8E1B0E042E050E00C941626BC
:104BE000262FF999FECF92BD81BDF89A019700B4A6
:104BF000021639F01FBA20BD0FB6F894FA9AF99A46
:104C00000FBE08950396272F0E94F1250E94F025DC
:104C1000252F0E94F125242F0C94F1250196272F92
:104C20000E94F1250C94F025DC01CB01FC01F999DF
:104C3000FECF06C0F2BDE1BDF89A319600B40D92E8
:104C400041505040B8F70895F894FFCFC012C012F9
:104C50001813181363137F13ED12ED128A13161431
:104C6000251425148014ED12ED1289140C150C1561
:104C70001515151517151515151515150C150C15F4
:104C80001C15151515151C156F24972480259724C0
:0C4C90008025CA24EB24802542254E25F7
:104C9C002808643C07148202F41E531F321F2E1F77
:104CAC002A1F01E200E900EA00B500B600B700CD0A
:104CBC00008301CC008A0192019401210223022479
:104CCC00022502260227022A02B300B4006F0070EC
:104CDC0000818283E200E900EA00B500B600B7006B
:104CEC00CD008301CC008A019201940121022302A0
:104CFC0024022502260227022A02B300B4006F0008
:064D0C00700081828300AB
:00000001FF
